:100000000C946B000C9493000C9493000C9493004C
:100010000C9493000C9493000C9493000C94930014
:100020000C9493000C9493000C9493000C94930004
:100030000C9493000C9493000C9493000C949300F4
:100040000C9431220C9493000C94431F0C94751F54
:100050000C9493000C9493000C9493000C949300D4
:100060000C94E8040C9493000000000800020100C6
:100070000003040700000000000000000102040863
:100080001020408001020408102001020408102002
:10009000040404040404040402020202020203032E
:1000A00003030303000000002300260029000000D2
:1000B0000000250028002B0000000000240027007D
:1000C0002A00B6010407841091151319F41A1D1C97
:1000D000F31DA51F532011241FBECFEFD8E0DEBFB4
:1000E000CDBF13E0A0E0B1E0ECEEF9E402C0059072
:1000F0000D92AA32B107D9F725E0AAE2B3E001C018
:100100001D92A63DB207E1F710E0C6EDD0E004C0B5
:100110002297FE010E947F24C23CD107C9F70E94AA
:1001200022220C94F4240C9400000F931F93CF937D
:10013000DF930E94F70825E0AC01249FC001259FB2
:10014000900D112497FD0396959587959595879524
:10015000049667E070E00E94EB230FE110E0081BBB
:10016000190B4AE050E0B8018AE295E00E9486212E
:100170000E94F70825E0AC01249FC001259F900D47
:10018000112497FD039695958795959587950196EA
:1001900067E070E00E94EB23CFE1D0E0C81BD90BF1
:1001A0004AE050E0BE018AE295E00E9486210E946A
:1001B000EF0804972CF40E94EF08039759F405C048
:1001C0000E94EF080A9794F0F6CF0E94E708801784
:1001D000910764F40E94EF080A9729F40E94E70847
:1001E000C817D9071CF480E19EE002C080E29CE1C0
:1001F000DF91CF911F910F91089580910A010E9484
:100200000D239093860380938503809108010E94BB
:100210000D239093840380938303809106010E94B1
:100220000D239093820380938103809104010E94A7
:10023000C2239093800380937F030895CF93DF932D
:10024000EC0169E571E08AE295E00E94A020CA30E5
:10025000D1052CF460E38AE295E00E94A2204AE0F6
:1002600050E0BE018AE295E0DF91CF910C947E21AF
:100270000E94CF084AE050E0BC018AE295E00E946B
:100280007E210E94D7080E941E010E94DF080E9462
:100290001E0167E271E08AE295E00E94A0200E94C0
:1002A000E7084AE050E0BC018AE295E00E947E2126
:1002B00067E271E08AE295E00E94A0200E94EF08C8
:1002C0004AE050E0BC018AE295E00E947E2167E2AC
:1002D00071E08AE295E00E94A0200E94F7084AE0BF
:1002E00050E0BC018AE295E00E947E218AE295E01E
:1002F0000C94B3200F931F930E94FD000E94FB08F3
:10030000892B89F10E943E0800912A0310912B034A
:1003100020912C0330912D036017710782079307FA
:1003200011F10E943E0860932A0370932B0380937F
:100330002C0390932D030E94380161E271E08AE260
:1003400095E00E94A0200E943E08AB01BC012AE07B
:1003500030E08AE295E00E949E218AE295E01F91BA
:100360000F910C94B3201F910F9108950F9300E00B
:1003700020E040E060E082E993E00E942C2060E50C
:1003800070E08CE893E00E94591B0CEB27E741E9F1
:1003900063EC89E793E00E942C208EE293E00F91BA
:1003A0000C94801D86E094E00E941D0680938703D4
:1003B0000895CF93DF9300D0CDB7DEB7FC01208145
:1003C000298381818A8342E050E0BE016F5F7F4FC5
:1003D00086E094E00E946F0682E090E00F900F901C
:1003E000DF91CF9108958F929F92AF92BF92CF925B
:1003F000DF92EF92FF92CF93DF9300D000D0CDB782
:10040000DEB70E943E084B015C010E9495006C0122
:1004100080918703823009F450C048F4882309F49E
:1004200049C0813009F04FC083E893E052C0833067
:1004300009F446C0843009F046C0EE24D7FCE094AD
:10044000FE2CC80CD91CEA1CFB1C2AE030E0B701CA
:10045000A6018AE295E00E94C9216F2D772788279F
:1004600099276983EA82DB82CC824AE050E08AE203
:1004700095E00E94B2214AE050E06A818AE295E06C
:100480000E94B2214AE050E06B818AE295E00E942E
:10049000B2214AE050E06C818AE295E00E94B221EC
:1004A00044E050E0BE016F5F7F4F86E094E00E9421
:1004B0006F0611C085E893E00CC081E893E009C0A5
:1004C0008FE793E006C08FEF9FEF9A838983CE0179
:1004D00001960E94D901109287030F900F900F9000
:1004E0000F90DF91CF91FF90EF90DF90CF90BF9072
:1004F000AF909F908F900895CF93DF9300D000D05E
:1005000000D0CDB7DEB7E9E4F3E020E3DF011D92D0
:100510002A95E9F723EE208326E020934B032CEE67
:1005200020934C0321E3209355033EE4309356037C
:100530002093570324E32093580326E133E03A83C2
:100540002983FC0182819381A481B5818B839C8363
:10055000AD83BE834BE750E0BE016F5F7F4F8EE2FD
:1005600093E00E94841C40E350E069E473E08EE273
:1005700093E00E94901C8EE293E00E948C1C60E04D
:1005800070E0CB0126960FB6F894DEBF0FBECDBF4C
:10059000DF91CF9108954F925F926F927F928F92E9
:1005A0009F92AF92BF92CF92DF92EF92FF92CF9342
:1005B000DF9300D000D0CDB7DEB78EE293E00E948B
:1005C000301D6CE271E08AE295E00E94B720E12CD8
:1005D000F12C89E793E00E947C0261E471E08AE2F9
:1005E00095E00E94A0204AE050E0B7018AE295E041
:1005F0000E94862168E873E180E090E00E94AA22D0
:100600008EE293E00E94301D892B09F4D8C040E3AC
:1006100050E069E473E08EE293E00E94CD1C80918B
:10062000710390917203492F50E060E070E0BA01CD
:1006300055274427782B20917403422B2091730374
:10064000522B409388035093890360938A037093DD
:100650008B03692F0E941B226091740380917303A6
:100660000E941B226BE571E08AE295E00E94A020C7
:10067000409188035091890360918A0370918B03A4
:100680002AE030E08AE295E00E94C92167E771E044
:100690008AE295E00E94A0208090880390908903D0
:1006A000A0908A03B0908B037501640180E8C81A9A
:1006B0008EE7D80A8AEAE80A83E8F80A2AE030E0F6
:1006C000B701A6018AE295E00E94C92164E871E0C1
:1006D0008AE295E00E94A020C701B60120E831E53A
:1006E00041E050E00E94FF23F0E14F2EFEE05F2E3C
:1006F000612C712CA30192010E94FF23BA01A90170
:100700002AE030E08AE295E00E949E216AE38AE2D4
:1007100095E00E94A220C701B601A30192010E94A8
:10072000FF239B01AC016835E2E07E07810591055E
:1007300068F460E38AE295E029833A834B835C8323
:100740000E94A2205C814B813A8129816CE3462E74
:10075000512C612C712CCA01B901A30192010E9494
:10076000FF23BA01A9012AE030E08AE295E00E9465
:100770009E216AE38AE295E00E94A220C701B601A9
:10078000A30192010E94FF236B017C016A30710575
:100790008105910528F460E38AE295E00E94A22099
:1007A0002AE030E0B701A6018AE295E00E94C92163
:1007B000C501B4016A577E478A4A934811C08FEF3A
:1007C000E81AF80AE8E2EE16F10409F002CF65E94A
:1007D00071E08AE295E00E94B72060E070E0CB0112
:1007E0000F900F900F900F90DF91CF91FF90EF90AF
:1007F000DF90CF90BF90AF909F908F907F906F9041
:100800005F904F900895CF93DF9300D000D000D039
:10081000CDB7DEB761E080910E010E94532361E005
:1008200080910C010E94532360E080910E010E9490
:100830008C2360E080910C010E948C2360E0809109
:1008400004010E94532326E040E855E260E070E096
:100850008AE295E00E94E11E6AEF70E080E090E09D
:100860000E94AA2269EA71E08AE295E00E94B7201C
:1008700064E171E08AEF94E00E945018892B69F4DA
:100880006FEA71E08AE295E00E94B72060E177E2CA
:1008900080E090E00E94AA22F3CF67ED71E08AE247
:1008A00095E00E94A0206AEF74E0CE0101960E94BC
:1008B000EB18BE016F5F7F4F8AE295E00E94C9206E
:1008C00060911201709113018EE293E00E94031D6A
:1008D0008CE893E00E94151B60E17EE080E090E0F0
:1008E0000E9418098BEC92E00E94020960911001AD
:1008F0007091110186E094E00E94F80663EF71E0C8
:1009000086E094E00E94FF0662ED71E086E094E0EC
:100910000E94FA0626960FB6F894DEBF0FBECDBF32
:10092000DF91CF9108951092050481E08093030434
:100930001092020461E082E10E948C2361E083E175
:100940000E948C23E9EBF0E080818E7F80838081A0
:100950008D7F808388E48093B80085E48093BC0019
:100960000895880F8093BA000895613298F4209119
:100970000504243089F46093BA03FC018CEB93E006
:10098000DC012A2F281B261718F421912D93F9CF6B
:1009900080E0089581E0089582E008959093FF0338
:1009A0008093FE03089590930104809300040895BA
:1009B00085ED8093BC008091BC0084FDFCCF10923B
:1009C0000504089585EC8093BC00109205040895F9
:1009D0001F920F920FB60F9211242F933F934F93B4
:1009E0005F936F937F938F939F93AF93BF93EF9397
:1009F000FF938091B900887F803609F49CC068F528
:100A0000883209F45BC090F4803109F454C038F4A2
:100A1000882309F4F5C0883009F44DC0F5C0883149
:100A200009F44CC0803209F45DC0EEC0803409F492
:100A300068C048F4803309F455C0883309F0E4C035
:100A400080939803A8C0803509F44FC0883509F415
:100A50005DC0883409F0D8C0D5C0883909F4C6C053
:100A6000A8F4883709F467C038F4883609F463C0FD
:100A7000803709F460C0C8C0883809F4B7C080392D
:100A800009F45FC0803809F0BFC05BC0803B09F447
:100A900085C038F4803A09F466C0883A09F47EC00B
:100AA000B3C0803C09F4A6C0883C09F4A3C0883BCD
:100AB00009F489C0A9C08091040410C09091DD039D
:100AC0008091DC03981770F5E091DD0381E08E0FD3
:100AD0008093DD03F0E0E252FC4F80818093BB0005
:100AE00085EC85C0809398038DC0E091DD0381E0A3
:100AF0008E0F8093DD038091BB00F0E0E252FC4F4B
:100B000080839091DD038091DC036DC0E091DD0373
:100B100081E08E0F8093DD038091BB00F0E0E25214
:100B2000FC4F80838091030481116CC081E080932D
:100B3000020484EA60C083E0809305041092990364
:100B4000CFCF80919903803208F050C0E091990393
:100B500081E08E0F809399038091BB00F0E0E65610
:100B6000FC4F8083BDCF80919903803230F4E091B7
:100B70009903F0E0E656FC4F10820E94D804609181
:100B8000990370E0E091FE03F091FF038AE993E09E
:100B90000995109299030E94E20436C084E0809384
:100BA00005041092BB031092BA03E0910004F09187
:100BB000010409958091BA03811105C081E08093F9
:100BC000BA031092BC03E091BB0381E08E0F8093C7
:100BD000BB03F0E0E454FC4F80818093BB00909114
:100BE000BB038091BA03981708F47ACF85E8809305
:100BF000BC000AC085EC8093BC001092050404C0C0
:100C0000109298030E94D804FF91EF91BF91AF9189
:100C10009F918F917F916F915F914F913F912F9114
:100C20000F900FBE0F901F9018958091390490E09F
:100C300020913A04821B9109089520913A048091F1
:100C40003904281750F4E22FF0E0E55CFB4F808177
:100C500090E02F5F20933A0408958FEF9FEF08955F
:100C6000E0913A0480913904E81730F4F0E0E55C53
:100C7000FB4F808190E008958FEF9FEF08950895D6
:100C8000E0911204F09113043097E1F030913A04AE
:100C9000209139043217B0F040E0242F30E02617BD
:100CA000370754F4DC01A20FB31F5C91D901A55C96
:100CB000BB4F5C934F5FF1CF10923A0460933904BD
:100CC000CB0109940895E0911404F0911504309734
:100CD00029F0109218041092170409940895CF92E5
:100CE000DF92EF92FF920F931F93CF93DF937C01DC
:100CF000CB018A0120911604222389F0EB016B01BC
:100D0000C40ED51ECC15DD0569F06991D701ED91B2
:100D1000FC910190F081E02DC7010995F3CF642F7C
:100D20000E94B504C801DF91CF911F910F91FF90F0
:100D3000EF90DF90CF900895CF93DF931F92CDB7C0
:100D4000DEB76983209116042223D1F02091170485
:100D5000203240F021E030E0FC013383228380E048
:100D600090E015C080911804E82FF0E0E75EFB4F9B
:100D7000998190838F5F809318048093170405C036
:100D800061E0CE0101960E94B50481E090E00F90F1
:100D9000DF91CF910895FC011382128248EE53E057
:100DA00060E070E0448355836683778381E992E055
:100DB00091838083089510923A041092390410921E
:100DC0001804109217040C949304CF93DF93EC0152
:100DD000862F0E94B10483E696E00E94D30480E44B
:100DE00096E00E94CE04CE01DF91CF910C94DB06F9
:100DF0000C94E506709313046093120408957093A5
:100E0000150460931404089586E094E00C94CB06D6
:100E10006F927F928F929F92AF92BF92CF92DF920A
:100E2000EF92FF920F931F93CF93DF93EA012CE38E
:100E3000C22ED12CE12CF12CA70196010E94FF2398
:100E40006883CA01B901A70196010E94FF23698343
:100E5000CA01B90128E130E040E050E00E94FF23E0
:100E600049015A016A83CA01B9016C5F7F4F8F4FF4
:100E70009F4F27E030E040E050E00E94FF236F5F8B
:100E80006B8300E010E0980140E054E6652E712C81
:100E900060E9C62EDD24D394E42FF0E0EE54F84F41
:100EA0007F0183E0E822FF24E114F10489F4CF01FB
:100EB000B3010E94EB23892B29F08EE691E0A0E09C
:100EC000B0E00AC0CF01B6010E94EB23892BA9F341
:100ED0008DE691E0A0E0B0E0080F191F2A1F3B1F2C
:100EE000D901C801AA27BB2788169906AA06BB06FE
:100EF00010F04F5FD1CF4E83E114F10499F4CF018C
:100F000064E670E00E94EB23892B29F08EE691E0E5
:100F1000A0E0B0E00BC0CF0160E971E00E94EB23DC
:100F2000892BA1F38DE691E0A0E0B0E0081B190B3E
:100F30002A0B3B0B801A910AA20AB30ACF0164E67E
:100F400070E00E94EB239C01CF0160E971E00E94F8
:100F5000EB23EDE9F2E0A0E0A13059F4E114F10453
:100F600051F42115310511F04DE106C00097E1F370
:100F700002C0408101C04CE150E060E070E08416A6
:100F80009506A606B70640F0841A950AA60AB70A7F
:100F9000AF5F3196AC3001F7AF5FAD8383948C8245
:100FA000DF91CF911F910F91FF90EF90DF90CF9045
:100FB000BF90AF909F908F907F906F900895CF9249
:100FC000DF92EF92FF926B017C0180916B04909114
:100FD0006C04A0916D04B0916E04C816D906EA069F
:100FE000FB0671F04FE654E0C701B6010E94080706
:100FF000C0926B04D0926C04E0926D04F0926E0487
:10100000FF90EF90DF90CF9008950E94DF078091CE
:10101000750490E08E54984F08950F931F9360933A
:101020006704709368048093690490936A04009144
:101030001A0110911B0120911C0130911D01060F16
:10104000171F281F391F00935F041093600420931B
:1010500061043093620482E090E090935E04809398
:101060005D040E947B226093630470936404809308
:101070006504909366041F910F910895CF92DF92BB
:10108000EF92FF920F931F930E947B22C090630404
:10109000D0906404E0906504F09066046C197D09BA
:1010A0008E099F09009167041091680420916904DA
:1010B00030916A04683E734081059105D8F00F5F56
:1010C0001F4F2F4F3F4F00936704109368042093E6
:1010D000690430936A0448EEC40E43E0D41EE11C58
:1010E000F11CC0926304D0926404E0926504F09213
:1010F0006604CACF80915F0490916004A09161045E
:10110000B0916204081719072A073B07C8F1E0915C
:101110005B04F0915C04309799F1099561157105B4
:101120008105910519F00E940D082AC080911A01CD
:1011300090911B01A0911C01B0911D014091670489
:10114000509168046091690470916A04840F951F3E
:10115000A61FB71F80935F0490936004A09361045F
:10116000B093620481E090E020915D0430915E04D0
:10117000232B11F480E090E090935E0480935D0453
:1011800060916704709168048091690490916A0489
:101190001F910F91FF90EF90DF90CF9008950E94E4
:1011A0003E080E94DF078091710490E008950E943C
:1011B0003E080E94DF078091700490E008950E942D
:1011C0003E080E94DF0780916F0490E008950E941E
:1011D0003E080E94DF078091730490E008950E940A
:1011E0003E080E94DF078091740490E008950E94F9
:1011F0003E080C9405080E943E0880915D04909181
:101200005E04089590935C0480935B04809167046E
:1012100090916804A0916904B0916A0480935F047E
:1012200090936004A0936104B09362040C943E0810
:101230000F931F9360931A0170931B0180931C01FD
:1012400090931D0100916704109168042091690436
:1012500030916A04060F171F281F391F00935F047F
:101260001093600420936104309362041F910F91E6
:101270000895CF93CFB7F89480917904811127C056
:10128000EAE9F0E08491E6E8F0E09491E82FF0E0FC
:10129000EE0FFF1FE854FF4FA591B4918C91892365
:1012A00021F461E08AE00E948C2361E08AE00E94E0
:1012B00053238CB580618CBD8CB580648CBD61E09E
:1012C0008DE00E94532361E08BE00E9453238091C4
:1012D00079048F5F80937904CFBFCF910895CF9227
:1012E000DF92EF92FF920F9330E0C12CF2E1DF2EFC
:1012F000FAE7EF2EF12C4C155D056E057F0540F4E5
:10130000F694E794D794C7943F5F3630A1F737E05F
:1013100041E04327211102C050E701C050E5242FCE
:1013200030E03595279523700C70202B252BFC0180
:101330002083417041830F91FF90EF90DF90CF9019
:10134000089520917804222399F03FB7F8942091D2
:101350007804213059F42DB3209376044DB32091B5
:101360007704209524232DBB3FBF02C03093760421
:101370008CBD9DBD089580917804882361F09FB74E
:10138000F8942091780480917604213019F48DBB73
:101390009FBF08958FBF089590E0982F882744E05D
:1013A00050E0845F9B4F0C94320E282F30E02C5F6E
:1013B0003F4F922F8827860F971F0C94610E62E093
:1013C00070E00C94D509FB01282F30E02C5F3F4FD3
:1013D000922F8827642F8E0F9F1F0C94A80DCF93F8
:1013E000DF93C82FD62F472F64E070E00E94E309F7
:1013F0004D2F65E070E08C2FDF91CF910C94E309C5
:10140000462F62E070E00C94E309CF93DF93C82F7E
:10141000D62F472F60E170E00E94E3094D2F61E174
:1014200070E08C2FDF91CF910C94E3090F931F9301
:10143000CF93DF9300D01F92CDB7DEB7182F00E017
:1014400021E040E059E06DE370E0CE0101960E949A
:101450006F0989819A810E94A10963E070E0812F60
:101460000E94D5098B830E94BB098B810F900F903E
:101470000F90DF91CF911F910F9108950F931F93BC
:10148000CF93DF9300D0CDB7DEB7182F00E021E077
:1014900040E059E06DE370E0CE0101960E946F09D3
:1014A00089819A810E94A10940E150E0612F8CE777
:1014B00094E00E942B106FEF812F0E94000A0E947F
:1014C000BB090F900F90DF91CF911F910F9108955D
:1014D000CF92DF92EF92FF920F931F93CF93DF9300
:1014E00000D0CDB7DEB7182FD62E7A01C22E8FEFDF
:1014F000860F8530A8F5812F0E943E0A00E021E08A
:1015000040E059E06DE370E0CE0101960E946F0962
:1015100089819A810E94A1094D2D4C2960E070E0DB
:10152000812F0E94E309E114F10411F0B7010AC010
:1015300060917A0470917B046F5F7F4F70937B049E
:1015400060937A04812F0E94EF0941E050E0612FFF
:101550008CE794E00E942B100E94BB0981E001C03F
:1015600080E00F900F90DF91CF911F910F91FF902E
:10157000EF90DF90CF9008950F931F93CF93DF9359
:1015800000D0CDB7DEB7182F00E021E040E059E0F1
:101590006DE370E0CE0101960E946F0989819A8106
:1015A0000E94A10963E070E0812F0E94D509833178
:1015B00021F00E94BB0980E00AC042E050E0612FA8
:1015C0008CE794E00E942B100E94BB0981E00F90F1
:1015D0000F90DF91CF911F910F910895CF92DF92DD
:1015E000EF92FF920F931F93CF93DF9300D0CDB76D
:1015F000DEB7182F7B016A01FB0180818F3F51F418
:1016000081818F3F99F482818F3F81F483818F3F65
:1016100069F430C081110AC0FB018181811106C0CB
:101620008281811103C08381882321F1C114D104F7
:1016300009F100E021E040E059E06DE370E0CE0107
:1016400001960E946F0989819A810E94A109B701C0
:10165000812F0E94CC09B601812F0E94050A44E027
:1016600050E0612F8CE794E00E942B100E94BB0990
:1016700081E001C080E00F900F90DF91CF911F912A
:101680000F91FF90EF90DF90CF9008950F931F93ED
:10169000CF93DF9300D0CDB7DEB7182F00E021E065
:1016A00040E059E06DE370E0CE0101960E946F09C1
:1016B00089819A810E94A10948E050E0612F8CE75E
:1016C00094E00E942B100E94BB090F900F90DF91B5
:1016D000CF911F910F910895BF92CF92DF92EF9219
:1016E000FF920F931F93CF93DF9300D01F92CDB73C
:1016F000DEB7B82E6B017A01413088E0580718F048
:10170000E12C98E0F92E00E021E040E059E06DE3A3
:1017100070E0CE0101960E946F0989819A810E9432
:10172000A1096B2D8CE794E00E94990E8C0163E077
:1017300070E08B2D0E94D5098B830E94BB098B81A1
:10174000873111F08C3131F40E9420220E151F05D3
:10175000D0F202C0E12CF12C00E021E040E059E0A1
:101760006DE370E0CE0101960E946F0989819A8134
:101770000E94A1099701A6016B2D8CE794E00E94BD
:10178000580F40E250E06B2D8CE794E00E942B1044
:101790008B2D0E94DF0984FD22C063E070E08B2D59
:1017A0000E94D509811108C00E94BB098B2D0E949F
:1017B0003E0A80E090E01AC00E94BB090E942022ED
:1017C00000E021E040E059E06DE370E0CE010196D9
:1017D0000E946F0989819A810E94A109D9CF60E195
:1017E0008B2D0E94000A0E94BB09C7010F900F9029
:1017F0000F90DF91CF911F910F91FF90EF90DF90AD
:10180000CF90BF900895AF92BF92CF92DF92EF92A8
:10181000FF920F931F93CF93DF9300D0CDB7DEB726
:10182000182F5B016A0100E021E040E059E06DE320
:1018300070E0CE0101960E946F0989819A810E9411
:10184000A109612F8CE794E00E94CD0E7C010097E6
:10185000A1F463E070E0812F0E94D509843119F171
:10186000882309F121E030E08C3111F420E030E0F0
:10187000EE24FF24E21AF30A16C0C816D9060CF4A7
:1018800076011E141F047CF400E09701A501612F6E
:101890008CE794E00E94DB0F40E450E0612F8CE77E
:1018A00094E00E942B100E94BB09C7010F900F907B
:1018B000DF91CF911F910F91FF90EF90DF90CF902C
:1018C000BF90AF9008950F931F93CF93DF9300D0F5
:1018D00000D0CDB7DEB7182F00E021E040E059E09E
:1018E0006DE370E0CE0101960E946F0989819A81B3
:1018F0000E94A109612F8CE794E00E94CD0E8B839A
:101900009C830E94BB098B819C810F900F900F904C
:101910000F90DF91CF911F910F910895EF92FF9259
:101920000F931F93CF93DF9300D0CDB7DEB7182F5F
:101930007B0100E021E040E059E06DE370E0CE0182
:1019400001960E946F0989819A810E94A10901E094
:1019500021E030E0A701612F8CE794E00E94DB0FCB
:101960000E94BB0981E090E00F900F90DF91CF9132
:101970001F910F91FF90EF90089508959F92AF925D
:10198000BF92CF92DF92EF92FF920F931F93CF936C
:10199000DF9300D0CDB7DEB7982E6B015A017901E5
:1019A00000E021E040E059E06DE370E0CE010196F7
:1019B0000E946F0989819A810E94A109692D8CE793
:1019C00094E00E94990E8E159F0530F4692D8CE7E6
:1019D00094E00E94990E7C0187019501A601692D72
:1019E0008CE794E00E94E90E0E94BB09C7010F90AA
:1019F0000F90DF91CF911F910F91FF90EF90DF90AB
:101A0000CF90BF90AF909F900895CF92DF92EF92CA
:101A1000FF920F931F93CF93DF9300D0CDB7DEB724
:101A2000182F7B016A01FB018081811109C081812E
:101A3000811106C08281811103C083818823F1F066
:101A4000C114D104D9F000E021E040E059E06DE399
:101A500070E0CE0101960E946F0989819A810E94EF
:101A6000A109B701812F0E94CC09B601812F0E94E4
:101A7000050A0E94BB0981E090E002C080E090E08E
:101A80000F900F90DF91CF911F910F91FF90EF90EA
:101A9000DF90CF9008950F931F93CF93DF9300D0E3
:101AA000CDB7DEB7182F00E021E040E059E06DE34C
:101AB00070E0CE0101960E946F0989819A810E948F
:101AC000A10940E250E0612F8CE794E00E942B10C6
:101AD000812F0E94DF0984FD21C0812F0E94DF0930
:101AE00083FF09C068E1812F0E94000A0E94BB09A0
:101AF00080E090E01BC00E94BB090E94202200E011
:101B000021E040E059E06DE370E0CE0101960E94D3
:101B10006F0989819A810E94A109DACF60E1812F42
:101B20000E94000A0E94BB0981E090E00F900F9094
:101B3000DF91CF911F910F9108958EBD00000DB4DC
:101B400007FEFDCF8EB508952A9808952A9A089524
:101B50001F93CF93DF9300D0CDB7DEB7182F6A83E2
:101B600099830E94A40D80EF0E949D0D9981892F79
:101B70000E949D0D812F0E949D0D6A81862F0E94DB
:101B80009D0D0E94A60D81E00F900F90DF91CF91E7
:101B90001F910895CF93DF93EC016CE271E080E038
:101BA00090E00E94AA220E943909229A809178042A
:101BB000882399F09FB7F89480917804813059F484
:101BC0008DB3809376042DB3809177048095822322
:101BD0008DBB9FBF02C09093760480E58CBD1DBC79
:101BE00060E880E090E00E94A80D65E58BE190E060
:101BF0000E94A80D65E58AE190E00E94A80D809101
:101C00007804882361F09FB7F8942091780480913C
:101C10007604213019F48DBB9FBF01C08FBF80E0D7
:101C200090E49983888380E090E69987888780E0B4
:101C300098E49B838A8380E098E69B878A8780E08C
:101C400090E59D838C8380E090E79D878C8780E082
:101C500098E59F838E8380E098E79F878E87DF914A
:101C6000CF910895CF92DF92EF92FF920F931F933F
:101C7000CF93DF93EC017A018B016C01C40ED51E6A
:101C8000CC15DD05A1F00E94A40D80EF0E949D0DF2
:101C90008D2F0E949D0D8C2F0E949D0D2196F80185
:101CA00081918F010E949D0D0E94A60DE9CFC70171
:101CB000DF91CF911F910F91FF90EF90DF90CF9028
:101CC00008951F93CF93DF931F92CDB7DEB7182FE0
:101CD00099830E94A40D8FE00E949D0D9981892F08
:101CE0000E949D0D812F0E949D0D80E00E949D0D00
:101CF00089830E94A60D89810F90DF91CF911F915A
:101D000008951F93CF93DF93182F60E270E00E9435
:101D1000D509C82FD0E061E270E0812F0E94D5097B
:101D2000DC2FCC279E01282BC901DF91CF911F9179
:101D30000895FF920F931F93CF93DF93F62EC0E089
:101D4000D0E08F2D0E94810E8C01009721F08F2D05
:101D50000E94810EEC01C017D10799F7CE01DF91E7
:101D6000CF911F910F91FF9008951F93CF93DF9311
:101D7000182F66E270E00E94D509C82FD0E067E214
:101D800070E0812F0E94D509DC2FCC279E01282BE3
:101D9000C901DF91CF911F910895FF920F931F9377
:101DA000CF93DF93F62EC0E0D0E08F2D0E94B50ECA
:101DB0008C01009721F08F2D0E94B50EEC01C01709
:101DC000D10799F7CE01DF91CF911F910F91FF902D
:101DD00008956F927F929F92AF92BF92CF92DF92BF
:101DE000EF92FF920F931F93CF93DF931F92CDB784
:101DF000DEB7D82E962E3A01590164E270E0892DA3
:101E000099830E94D509E82EF12C65E270E0892DB6
:101E10000E94D509FE2CEE24E82AE60CF71C970157
:101E200037706D2C9981792E690C711C690C711CAD
:101E3000D301ED91FC91E20FF31FC901800F911FB7
:101E400081309840A0F0C12C48E0D42EC21AD30AA9
:101E5000A601B501CF010E94320EA8014C195D09FF
:101E6000B5016C0D7D1DF3018081918103C0A80136
:101E7000B501CF010E94320EE00EF11E4F2D64E23B
:101E800070E0892D0E94E3094E2D65E270E0892DF6
:101E90000F90DF91CF911F910F91FF90EF90DF9006
:101EA000CF90BF90AF909F907F906F900C94E3097C
:101EB0000F931F9389019A0140E050E00E94E90EC0
:101EC0001F910F910895CF92DF92EF92FF920F939F
:101ED0001F93CF93DF93EC017A018B016C01C40E49
:101EE000D51ECC15DD05A9F00E94A40D8FE00E943F
:101EF0009D0D8D2F0E949D0D8C2F0E949D0D219672
:101F000080E00E949D0DF80181938F010E94A60D33
:101F1000E8CFC701DF91CF911F910F91FF90EF9014
:101F2000DF90CF900895AF92BF92CF92DF92EF9261
:101F3000FF920F931F93CF93DF9300D0CDB7DEB7FF
:101F40005A8349835901E981FA81F7707C01E60ED1
:101F5000F11CE60EF11CD70118968D919C911997F2
:101F60008E0F9F1F98012E0F3F1F2130384098F091
:101F7000C12C68E0D62ECE1ADF0AA601B5010E9458
:101F8000630FA8014C195D09B5016C0D7D1DF701AA
:101F90008085918502C0A801B5010F900F90DF9157
:101FA000CF911F910F91FF90EF90DF90CF90BF9056
:101FB000AF900C94630F8F929F92AF92BF92CF928B
:101FC000DF92EF92FF920F931F93CF93DF936C01F9
:101FD000962E5A017901802E68E270E0892D0E94C8
:101FE000D509C82FD0E069E270E0892D0E94D5099B
:101FF000DC2FCC27C82B87019501AE01692DC601C6
:102000000E94930F81101AC0CE0DDF1D4D2F68E284
:1020100070E0892D0E94E3094C2F69E270E0892D60
:10202000DF91CF911F910F91FF90EF90DF90CF90B4
:10203000BF90AF909F908F900C94E309DF91CF9168
:102040001F910F91FF90EF90DF90CF90BF90AF90D6
:102050009F908F900895CF93C62F61E070E08C2FF2
:102060000E94E30961E070E08C2F0E94D509811184
:10207000F9CFCF9108950E9624E1FC0111922A9593
:10208000E9F70895CF93DF93EC01625F7F4F0E94E1
:102090003820CE01DF91CF910895CF93DF93EC01EB
:1020A0006E5E7F4F0E943820CE01DF91CF91089560
:1020B000CF93DF93EC016A5E7F4F0E943820CE0100
:1020C000DF91CF910895CF93DF93EC01625E7F4F54
:1020D0000E943820CE01DF91CF91089580E3FB016B
:1020E00080833296842F82958F7090E1899F40196A
:1020F00011244A3014F4405D01C0495C42938823A6
:1021000011F0482FEFCF08950F9300E020E040E05A
:1021100060E08CE894E00E942C200F9108956F926B
:102120007F928F929F92AF92BF92CF92DF92EF9267
:10213000FF920F931F93CF93DF93CDB7DEB7AC978A
:102140000FB6F894DEBF0FBECDBF7C01862EB42E35
:10215000A52E20E2922ECE0101966C01FC01292DC4
:1021600011922A95E9F70FEF2FEF4FEF6FEF869659
:102170000E942C2086E193E09AA389A389A59AA5C1
:10218000ABA5BCA58BA39CA3ADA3BEA38701095B94
:102190001F4F43E450E0BE016F5D7F4FC8010E94B6
:1021A000841C019609F4BFC081E089838A8386E09C
:1021B000782E7B821C82F7016481758186819781EC
:1021C0000E9440246D837E838F839887A986BA8678
:1021D00080E890E09C878B874CE150E0B601C80115
:1021E0000E94901CF601292D11922A95E9F75701BA
:1021F00088E0A80EB11CF501D60101900D927A94E9
:10220000E1F740E150E0B601C8010E94901CF601E0
:1022100011929A94E9F796E0692E712C40E250E011
:10222000B601C8010E94901CF1E06F1A7108B1F765
:1022300083E6898392E89A8393E59B838C8385E385
:102240008D8381E08E838F829DE3988797E09987C5
:102250008A8786E0F501DE011B9601900D928A9532
:10226000E1F78CE0898B8A8B69EA72E0CE014396B4
:102270000E94ED24F7014385BE01675E7F4FC701D1
:102280000E946E10F7014485BE01655E7F4FC70155
:102290000E946E10F7014585BE01635E7F4FC70146
:1022A0000E946E104EE150E0B601C8010E94901CE1
:1022B000F3E08F121EC082E3898384E08A83F701F2
:1022C00096859B8397859C8390899D8391899E8326
:1022D00096E39F838887828D8987838D8A87848D03
:1022E0008B87858D8C874CE050E0B601C8010E9439
:1022F000901C87E3898386E08A8391E09B8393E047
:102300009C838D838FE08E838AE38F838BE3888722
:102310008FEF898749E050E0B601C8010E94901C08
:10232000C8010E948C1CAC960FB6F894DEBF0FBE9D
:10233000CDBFDF91CF911F910F91FF90EF90DF9074
:10234000CF90BF90AF909F908F907F906F900895A7
:102350002F923F924F925F926F927F928F929F92B5
:10236000AF92BF92CF92DF92EF92FF920F931F93A3
:10237000CF93DF93CDB7DEB7E3970FB6F894DEBF08
:102380000FBECDBF7C012A013B0169010E947B2267
:102390004B015C018701095B1F4FC8010E94301D82
:1023A0001816190694F00E947B22681979098A0987
:1023B0009B094616570668067906F0F062E370E05E
:1023C00080E090E00E94AA22E8CF42E250E0BE0105
:1023D0006F5F7F4FC8010E94CD1C8981823031F42C
:1023E000F801858996898334910541F019A6C801C1
:1023F0000E945D1C89A566C18FEF64C16D817E81DD
:102400008F8198850E9440244B015C01F601608316
:1024100071838283938346E050E0B701685F7F4F0A
:10242000CE014D960E94E024892B99F4F70180811A
:102430009181A281B38188169906AA06BB0648F04D
:1024400084819581A681B78188159905AA05BB0568
:1024500028F4C8010E945D1C80E034C189899A89F2
:10246000AB89BC89F70186879787A08BB18B3EEC3F
:10247000C32ED12CC8010E94A41CF1E0CF1AD108B0
:10248000C9F719A6C70182969BA78AA7F701B69636
:10249000FDA7ECA708969FA78EA73C976F018E9685
:1024A00099AB88AB3897FBABEAAB5701F6E1AF0EBF
:1024B000B11C47018EE1880E911CC8010E94431C8B
:1024C000181619060CF093CFC8010E94A41C833380
:1024D000910509F4CDC0F4F481309105B9F11CF4F3
:1024E000892B59F3DFC083309105C1F1069709F0BC
:1024F000D9C0C8010E94A41C3C0144E050E0B401D2
:10250000C8010E94CD1C212C312C7724F4E06F1AD5
:1025100071083FC08A33910509F47EC03CF48533CD
:10252000910561F0C69709F43FC0BCC08B3391059B
:1025300009F488C08F3F910501F2B4C0C8010E9420
:10254000A41CC8010E94A41C89A7B7CFC8010E947F
:10255000A41C44E050E06AA97BA93AC0C8010E94CB
:10256000A41C3C0144E050E0B501C8010E94CD1C10
:10257000212C312C772494E0691A71082614370431
:102580000CF09BCFC8010E94A41CEFEF2E1A3E0A4C
:10259000F5CF261437040CF090CFC8010E94A41C7C
:1025A0008FEF281A380AF5CFC8010E94A41C782E94
:1025B000F701828D811110C0838D81110DC0848D32
:1025C00081110AC0858D811107C044E050E0B60139
:1025D000C8010E94CD1C71CFE8A9F9A920803180E3
:1025E00042805380B601CE0183960E9438208DA18F
:1025F0009EA1AFA1B8A582159305A405B50529F341
:10260000212C312C721409F458CFC8010E94A41C4B
:10261000FFEF2F1A3F0AF6CFC8010E94A41C44E026
:1026200050E06CA57DA5C8010E94CD1CF70166A1F4
:1026300077A180A591A50E94402466A377A380A7D7
:1026400091A73BCFC8010E94A41C44E050E06EA5B6
:102650007FA5C8010E94CD1CF70162A573A584A5C2
:1026600095A50E94402462A773A784A795A725CFAC
:10267000C8010E94A41C44E050E06AA57BA5C801E3
:102680000E94CD1CF70162A173A184A195A10E94B3
:10269000402462A373A384A395A366A777A780AB06
:1026A00091AB0BCFC8010E94A41C382E612C712C59
:1026B000361409F402CFC8010E94A41CFFEF6F1A60
:1026C0007F0AF6CFE3960FB6F894DEBF0FBECDBFFC
:1026D000DF91CF911F910F91FF90EF90DF90CF90FE
:1026E000BF90AF909F908F907F906F905F904F9032
:1026F0003F902F9008952F923F924F925F926F924A
:102700007F928F929F92AF92BF92CF92DF92EF9281
:10271000FF920F931F93CF93DF93CDB7DEB7279729
:102720000FB6F894DEBF0FBECDBF8C0120ED37E0B1
:1027300040E050E061E070E080E090E00E94FF2126
:10274000D80114966D937D938D939C931797F80100
:1027500060837183828393834801F7E48F0E911C19
:10276000C4010E946F1C64E470E0C4010E94031D58
:10277000882309F428C10E947B226B017C01A12CD3
:10278000B12C1D82180186E4280E311CD801DE967A
:10279000BF83AE8338EE432E33E0532E612C712C71
:1027A000F1018081833009F4FDC081111FC0F8015F
:1027B00084819581A681B7810196A11DB11D848375
:1027C0009583A683B7830E947B226C197D098E09AD
:1027D0009F09A30192010E94FF23A90161E0C801A2
:1027E0000E948F1081E0D1018C93BEC08430F9F437
:1027F000F80184819581A681B7810196A11DB11D43
:1028000084839583A683B7830E947B226C197D09FC
:102810008E099F09A30192010E94FF23A90163E091
:10282000C8010E948F10E2E0D101EC939DC081307D
:1028300061F5AE81BF814D915D916D917C919E015D
:102840002F5F3F4FC8010E94A8118D83823009F08D
:102850008BC089819A81AB81BC81F8018483958387
:10286000A683B7830E947B226C197D098E099F097C
:10287000A30192010E94FF23A90163E0C8010E9405
:102880008F10ED81D101EC9375C0823009F06CC0DE
:10289000AE81BF814D915D916D917C919E012F5FC5
:1028A0003F4FC8010E94A8118D83853009F056C0A2
:1028B00083E0F1018083F80182A193A1A4A1B5A1D5
:1028C000892B8A2B8B2B41F484E893E0A0E0B0E0C5
:1028D00082A393A3A4A3B5A3F80186A197A1A0A561
:1028E000B1A5892B8A2B8B2B61F482A193A1A4A182
:1028F000B5A1B695A7959795879586A397A3A0A709
:10290000B1A7D8019A964D915D916D917C919D975B
:1029100096968D919D910D90BC91A02D452B462BA7
:10292000472B59F4AC01BD01440F551F661F771F9B
:10293000F80142A753A764A775A7F80186A797A730
:10294000A0ABB1AB82A593A5A4A5B5A582AB93AB73
:10295000A4ABB5ABAA24A394B12C0CC0FD81F63076
:1029600019F4D1011C9206C0BD81BF3F19F4F101D9
:1029700010821D82F1E0AF16B10409F411CF0E945C
:102980007B226C197D098E099F09D801DA962D9159
:102990003D914D915C91DD97261737074807590700
:1029A00008F0FECEC4010E946F1CF801848195815D
:1029B000A681B7810196A11DB11D84839583A6834D
:1029C000B783C50102C080E090E027960FB6F89467
:1029D000DEBF0FBECDBFDF91CF911F910F91FF9052
:1029E000EF90DF90CF90BF90AF909F908F907F90AF
:1029F0006F905F904F903F902F900895CF92DF920D
:102A0000EF92FF920F931F93CF93DF93EC016B0133
:102A10001AA21BA21CA21DA21EA21FA218A619A6C2
:102A20001AA61BA61CA61DA61EAA1FAA18AE19AE82
:102A30002AAF3BAF4CAF5DAFFC01FE96E082F18266
:102A4000028313838C01085F1F4F86E0F801119207
:102A50008A95E9F7CE010E943B1086E0F601D80185
:102A600001900D928A95E1F7FE01EA5BFF4F10821B
:102A7000CE01DF91CF911F910F91FF90EF90DF90EA
:102A8000CF900C947B13FB0142815381648175814B
:102A9000FC014283538364837583178216820895F1
:102AA000CF93FB0181918111FDCFFB0180E090E08C
:102AB00020E030E0CAE06191662309F1243031055D
:102AC00064F56E3271F48F3F910509F034F5DA0147
:102AD000A20FB31F12968C932F5F3F4F80E090E0C0
:102AE000EACFDC01CA9FC001CB9F900D112477274C
:102AF00067FD709560537109860F971FDCCF8F3F7C
:102B0000910509F054F4243031053CF4FA01E20F48
:102B1000F31F828381E090E002C080E090E0CF91DB
:102B200008950F9300E020E040E060E082E994E047
:102B30000E942C200F910895AF92BF92CF92DF9206
:102B4000EF92FF920F931F93CF93DF9300D01F92CA
:102B5000CDB7DEB76C017B010E947B22F601778343
:102B600066838601085F1F4FB6016A5F7F4F42E0B0
:102B700050E0C8010E94901C81E090E09A83898314
:102B800042E050E0BE016F5F7F4FC8010E94901C81
:102B900080E091E09A83898342E050E0BE016F5F5C
:102BA0007F4FC8010E94901C1A82198242E050E0B7
:102BB000BE016F5F7F4FC8010E94901C42E050E051
:102BC000BE016F5F7F4FC8010E94901C42E050E041
:102BD000BE016F5F7F4FC8010E94901C6701F60124
:102BE0008081882311F1F7016F018191811115C056
:102BF0005601AE18BF081A141B0494F4AB8241E0CE
:102C000050E0BE016D5F7F4FC8010E94901CA5017E
:102C1000B701C8010E94901C03C08E3229F7E8CF8B
:102C20007601FFEFEF1AFF0ADACF1B8241E050E096
:102C3000BE016D5F7F4FC8010E94901CE12CFF24F4
:102C4000F394FA82E98242E050E0BE016F5F7F4F69
:102C5000C8010E94901CFA82E98242E050E0BE0165
:102C60006F5F7F4FC8010E94901C81E090E00F9041
:102C70000F900F90DF91CF911F910F91FF90EF90E8
:102C8000DF90CF90BF90AF9008954F925F926F9278
:102C90007F928F929F92AF92BF92CF92DF92EF92EC
:102CA000FF920F931F93CF93DF93CDB7DEB7639758
:102CB0000FB6F894DEBF0FBECDBF7C015B016A0189
:102CC0000E947B222B013C018701085F1F4F4501B9
:102CD000A12CB12CC8010E94301D1816190694F0C1
:102CE0000E947B2264197509860997098616970642
:102CF000A806B906D0F062E370E080E090E00E94A0
:102D0000AA22E8CFF7014281538164817581818DC8
:102D1000928DA38DB48D481759076A077B0741F43C
:102D2000858D968DC59721F406C08FEF9FEFF9C072
:102D30008EEF9FEFF6C0C8010E94431C0C970CF465
:102D4000EEC04CE050E0BE016F5F7F4FC8010E94B3
:102D5000CD1C8B819C819827892798279A8B898BFA
:102D6000F7014681578129813A814217530711F4AF
:102D700097FD06C0C8010E945D1C8CEF9FEFD1C07B
:102D80008F709270892B31F0C8010E945D1C8BEF0F
:102D90009FEFC7C0AF80B884BA24AB24BA24A11473
:102DA000B10419F0E12CF12C23C0C8010E945D1C74
:102DB0008AEF9FEFB6C041E050E0BE01635F7F4FF6
:102DC000C8010E94CD1C8D8581111BC08D8581118C
:102DD000F2CFC8010E94A41CC8010E94A41CC80113
:102DE0000E94A41CC8010E94A41CFFEFEF1AFF0A56
:102DF0008D819E81982789279827E816F906D8F2B1
:102E00000AC08D859FEF980F9D878823F9F2C8012E
:102E10000E94A41CF6CFE12CF12C41E050E0BE0151
:102E20006D5E7F4FC8010E94CD1C8B89982F907CCE
:102E300061F4882371F08B899FEF980F9B8B882317
:102E400041F0C8010E94A41CF6CFC8010E94A41C36
:102E50001B8A8B898111E1CF42E050E0BE01615FA6
:102E60007F4FC8010E94CD1C42E050E0BE01635F6D
:102E70007F4FC8010E94CD1CC8010E94A41CC8013C
:102E80000E94A41CC8010E94A41CC8010E94A41C8A
:102E900042E050E0BE016F5E7F4FC8010E94CD1C32
:102EA0008F8598898115914029F48D859E8581159E
:102EB000914019F0812C912C16C089899A8981152D
:102EC000944031F0C8010E945D1C87EF9FEF29C03C
:102ED000B6016E5F7F4F44E050E0C8010E94CD1CF8
:102EE00081E090E01EC089899A89982789279827D0
:102EF0008816990638F4C8010E94A41C2FEF821A84
:102F0000920AF1CF8FEFE81AF80AEA14FB0409F0ED
:102F100084CFC8010E945D1C86EF9FEF02C08DEF39
:102F20009FEF63960FB6F894DEBF0FBECDBFDF9163
:102F3000CF911F910F91FF90EF90DF90CF90BF90B6
:102F4000AF909F908F907F906F905F904F9008957B
:102F50008F929F92AF92BF92CF92DF92EF92FF92A9
:102F60000F931F93CF93DF9300D000D000D0CDB745
:102F7000DEB78C015B016A010E9450154C0100977D
:102F800009F05DC0F80142815381648175818091AF
:102F9000940490919504A0919604B09197044817D9
:102FA00059076A077B0709F44EC00E947B2278010B
:102FB000F8E0EF0EF11C6F7077277C5FC7010E946D
:102FC000031D813009F043C086E193E09A83898331
:102FD000F80182819381A481B5818B839C83AD8329
:102FE000BE8345E350E0BE016F5F7F4FC7010E9483
:102FF000841C892B19F4812C912C1DC0B501C801AA
:103000000E949C15892BB9F3C7010E948C1C892B47
:1030100091F333E0A32EB12CA60168E873E1C80157
:103020000E9445164C01F1E0AF1AB10821F08F3F24
:103030002FEF920789F3C7010E946F1C08C08824F4
:103040008394912C04C09EEF892E99249A94C401F4
:1030500026960FB6F894DEBF0FBECDBFDF91CF919D
:103060001F910F91FF90EF90DF90CF90BF90AF90A6
:103070009F908F90089544E050E0BC0181E090E083
:103080000C94320E44E050E0BC0185E090E00C94DA
:10309000320E44E050E0BC018FE090E00C94320E20
:1030A000AF92BF92CF92DF92EF92FF920F931F9356
:1030B000CF93DF9300D000D000D0CDB7DEB76C0146
:1030C0005B0180910205811107C08FED94E00E94A1
:1030D000801D81E08093020588E994E0F6019783E2
:1030E00086838CE794E00E94CA0D80E590E00E9400
:1030F000A10946E050E0B50189E090E00E94320E5F
:1031000000E020E040E060E0CE0101960E942C202B
:10311000CE0103960E9449180E94BB0910EAE12ED5
:103120001FE0F12E00E010E020E63AEE40E050E033
:10313000B501F601868197810E94FE145C01813001
:103140009105B9F580E590E00E94A109F60166813C
:103150007781CE0101960E944210CE0103960E9413
:103160004918F60166817781CE0101960E945810B8
:10317000CE0103960E943B18F60166817781CE014D
:1031800001960E944D10CE0103960E9442180E94A3
:10319000BB09F60166817781CE0101960E9463101A
:1031A0004B815C816D817E81F60142835383648310
:1031B0007583C50126960FB6F894DEBF0FBECDBF4E
:1031C000DF91CF911F910F91FF90EF90DF90CF9003
:1031D000BF90AF900895CF93DF93EC010E9422201F
:1031E00080E590E00E94A109BE016E5F7F4F44E040
:1031F00050E08FE090E00E94630F0E94BB09CE0177
:10320000DF91CF91089526E133E0FC0131832083E3
:10321000FB014281538164817581FC0142835383A8
:103220006483758308950F9300E020E040E060E040
:1032300082E195E00E942C208AEF94E00F910C949B
:10324000222081E086270895862F0895DC01ED91E4
:10325000FC91048CF58DE02D099591E08927089566
:10326000CF93DF931F92CDB7DEB76983DC01ED9179
:10327000FC910280F381E02D41E050E0BE016F5FE0
:103280007F4F09950F90DF91CF91089521E0FC01C8
:103290008485843009F420E0822F0895FC01948510
:1032A000FB018485981303C081E0943009F480E029
:1032B00008950F931F93CF93DF93EC018A018C85C0
:1032C000843021F00E946C0B892B39F481E090E06E
:1032D0009B838A8380E090E001C0C801DF91CF9199
:1032E0001F910F910895FC018485843011F00C9496
:1032F000630C80E090E00895CF93DF931F92CDB7E9
:10330000DEB741E050E0BE016F5F7F4FFC01848576
:103310000E94030C181619061CF4898190E002C063
:103320008FEF9FEF0F90DF91CF910895FC0184857F
:103330000C94030C0F931F93CF93DF931F92CDB781
:10334000DEB78C01DC01ED91FC910480F581E02D6C
:103350000995892B51F0BE016F5F7F4FF80184857D
:103360000E948E0C898190E002C08FEF9FEF0F903A
:10337000DF91CF911F910F910895FC0184850C94EA
:10338000BD0CCF92DF92EF92FF920F931F93CF93DA
:10339000DF93CDB7DEB7AF970FB6F894DEBF0FBEA1
:1033A000CDBF7C018B016A01CE0101960E942220D3
:1033B000CE0109960E94801DCE018A960E9422208D
:1033C0006AEF74E0CE0184960E940319BE016C5D21
:1033D0007F4FCE0101960E944315AE01465D5F4FBF
:1033E000B801CE0101960E94A81781309105C1F461
:1033F000D701ED91FC910484F585E02D86E193E001
:103400009DA38CA30CA51DA52EA53FA50EA31FA3B0
:1034100028A739A7A601BE016C5D7F4FC70109959A
:10342000AF960FB6F894DEBF0FBECDBFDF91CF9140
:103430001F910F91FF90EF90DF90CF900895FC01C6
:10344000262F1382128248EE53E060E070E044833E
:1034500055836683778384EB92E09183808324870E
:103460000895FC018485843011F00C94160A80E0E4
:103470000895DF92EF92FF920F931F93CF93DF9304
:10348000EC017B018A018C85843009F045C0D12C88
:103490008D2D0E94160A811102C0DC8607C08B7F29
:1034A0008831D9F3D39484E0D812F2CF8C8584305C
:1034B00099F120911E0130911F012F5F3F4F11F4B0
:1034C00020E030EC30931F0120931E0140911E013B
:1034D00050911F0120E061E00E94680AB7016E5F11
:1034E0007F4FA8018C850E94EE0A811103C084E001
:1034F0008C8712C0CE010E94311A873151F061E0F1
:1035000070E080E090E00E94AA22CE010E94311A71
:10351000ECCF81E090E002C080E090E0DF91CF91BD
:103520001F910F91FF90EF90DF900895CF92DF925F
:10353000EF92FF92CF93DF93EC018C85843049F1B9
:103540000E94460B0E947B226B017C01CE010E94EF
:10355000311A8823A1F061E070E080E090E00E94E1
:10356000AA220E947B226C197D098E099F09683E60
:1035700073408105910550F38C850E943E0AEC85CD
:10358000F0E0EE0FFF1FE65FFA4F1182108284E039
:103590008C87DF91CF91FF90EF90DF90CF900895CF
:1035A000CF93DF93EC018C858430D1F0CE010E9463
:1035B000311A8431A9F0882399F0883189F08C314F
:1035C00069F4E881F9810480F581E02DCE01099547
:1035D00021E0892B09F420E0822F03C081E001C0A3
:1035E00080E0DF91CF9108950F9300E020E040E06C
:1035F00060E088E195E00E942C200F910895CF9320
:10360000DF931F92CDB7DEB76983DC01ED91FC91AA
:103610000280F381E02D41E050E0BE016F5F7F4FFB
:1036200009950F90DF91CF910895EF92FF920F933C
:103630001F93CF93DF93CDB7DEB72D970FB6F894D6
:10364000DEBF0FBECDBF7C0100E010E0602FCE01D9
:1036500001960E941F1ACE0101960E94311A811113
:1036600016C0F7014481558120E061E0802F0E945F
:10367000680A802F0E94BC0AF70184819581F801B5
:10368000EE0FFF1FE65FFA4F9183808305C00F5F47
:103690001F4F04301105D1F62D960FB6F894DEBFFA
:1036A0000FBECDBFDF91CF911F910F91FF90EF9093
:1036B0000895FC011382128288ED92E09183808349
:1036C000758364830895BF92CF92DF92EF92FF9249
:1036D0000F931F93CF93DF93CDB7DEB72D970FB620
:1036E000F894DEBF0FBECDBF8C014AE0C42E45E08A
:1036F000D42EB12CE12CF12C6B2DCE0101960E9421
:103700001F1AD6012D913D916D01F801848195819B
:1037100028173907B1F4CE0101960E94311A84317D
:1037200069F0CE0101960E94311A8C3151F4CE011C
:1037300001960E947319892B99F003C0EE24E3943B
:10374000F12CB394F4E0BF12D7CFEF2871F4D80175
:10375000ED91FC910480F581E02DC801099505C02B
:10376000CE0101960E94961AECCF2D960FB6F894D2
:10377000DEBF0FBECDBFDF91CF911F910F91FF90A4
:10378000EF90DF90CF90BF9008957F928F929F929D
:10379000AF92BF92CF92DF92EF92FF920F931F935F
:1037A000CF93DF93CDB7DEB72D970FB6F894DEBF7A
:1037B0000FBECDBF6C015B014A010E94631B5AE042
:1037C000E52E55E0F52E712C00E010E0672DCE01BE
:1037D00001960E941F1AF701219131917F01F60194
:1037E000848195812817390731F4CE0101960E9412
:1037F000311A8731C9F07394F4E07F12E7CFC80122
:103800002D960FB6F894DEBF0FBECDBFDF91CF91DE
:103810001F910F91FF90EF90DF90CF90BF90AF90EE
:103820009F908F907F900895A401B501CE010196DD
:103830000E945919080F191FDECF0F9300E020E0F6
:1038400040E060E08EE195E00E942C200F91089509
:10385000DC01ED91FC91008CF18DE02D099426E1C5
:1038600033E0FC0131832083FB0141895289638964
:103870007489FC0142835383648375830895FC013A
:10388000858996890895FC01818D928D0895CF9345
:10389000DF931F92CDB7DEB76983DC01ED91FC9118
:1038A0000280F381E02D41E050E0BE016F5F7F4F69
:1038B00009950F90DF91CF910895CF93DF93EC019D
:1038C000898D9A8D892B41F0E881F9810680F781F5
:1038D000E02DCE010995F4CFDF91CF910895CF93DC
:1038E000DF93EC018C85843061F00E943E0AEC8508
:1038F000F0E0EE0FFF1FE65FFA4F1182108284E0C6
:103900008C87DF91CF910895FC01108E178A6E5F2E
:103910007F4F84850C94050DFC0184850C944B0D20
:10392000CF93DF93EC019A018F89988DAB01BC0195
:103930008C850E94BE0C2F89388D280F391F388F37
:103940002F8BDF91CF9108950F931F93CF93DF9328
:103950001F92CDB7DEB78C01FC01818D928D892B32
:1039600059F041E050E0BE016F5F7F4F84850E94B7
:10397000030C181619061CF08FEF9FEF08C0F80112
:10398000818D928D0197928F818F898190E00F9028
:10399000DF91CF911F910F910895CF93DF93EC01A9
:1039A000898D9A8D009719F48FEF9FEF10C04817FB
:1039B000590708F0AC018C850E94030C18161906F3
:1039C0009CF7298D3A8D281B390B3A8F298FDF916F
:1039D000CF910895CF93DF931F92CDB7DEB7FC014F
:1039E000218D328D232B49F0BE016F5F7F4F84857F
:1039F0000E948E0C898190E002C08FEF9FEF0F90A4
:103A0000DF91CF910895FF920F931F93CF93DF9390
:103A1000EC018B018C858430E1F4F12C8F2D0E9418
:103A2000160A811102C0FC8606C08831E1F3F394C6
:103A300084E0F812F3CF8C85843059F01E870D870F
:103A40001A8E198E20E0A80162E00E94680A81E0C7
:103A500001C080E0DF91CF911F910F91FF900895F9
:103A60000F931F93CF93DF93CDB7DEB728970FB691
:103A7000F894DEBF0FBECDBF8C01DC01ED91FC914F
:103A80000284F385E02D0995F80184850E94630C7A
:103A90001816190644F548E050E0BE016F5F7F4FED
:103AA000D8011C968C910E94030C18161906ECF490
:103AB000BE016F5F7F4FC8010F960E9448208D8125
:103AC00090E0982F88272E81820F911DF801968B08
:103AD000858B8F8190E0982F88272885820F911DF4
:103AE000928F818F02C080E090E028960FB6F89404
:103AF000DEBF0FBECDBFDF91CF911F910F91089513
:103B0000FC011382128248EE53E060E070E04483CF
:103B100055836683778382EE92E09183808384E08D
:103B20008487CF010F960C942220CF92DF92EF92E0
:103B3000FF920F931F93CF93DF93CDB7DEB7AF976D
:103B40000FB6F894DEBF0FBECDBF7C018B016A01BA
:103B5000CE0101960E942220CE0109960E94801D6E
:103B6000CE018A960E9422206AEF74E0CE018496EC
:103B70000E940319BE016C5D7F4FCE0101960E9429
:103B80004315AE01465D5F4FB801CE0101960E941C
:103B9000A81781309105C1F4D701ED91FC910088FF
:103BA000F189E02D86E193E09DA38CA30CA51DA5D2
:103BB0002EA53FA50EA31FA328A739A7A601BE01C6
:103BC0006C5D7F4FC7010995AF960FB6F894DEBFC5
:103BD0000FBECDBFDF91CF911F910F91FF90EF905E
:103BE000DF90CF9008950F9300E020E040E060E088
:103BF00084E295E00E942C200F910895FC01818DB4
:103C0000228D90E0805C9F4F821B91098F739927D2
:103C10000895FC01918D828D981731F0828DE80F07
:103C2000F11D858D90E008958FEF9FEF0895FC01C1
:103C3000918D828D981761F0828DDF01A80FB11DE3
:103C40005D968C91928D9F5F9F73928F90E0089507
:103C50008FEF9FEF08958BE99FE1892B49F080E07A
:103C600090E0892B29F00E949B1F81110C94000089
:103C70000895FC01848DDF01A80FB11DA35ABF4F29
:103C80002C91848D90E001968F739927848FA6895B
:103C9000B7892C93A089B1898C9180648C93938D82
:103CA000848D981306C00288F389E02D80818F7D72
:103CB00080830895CF93DF93EC01888D8823C9F02A
:103CC000EA89FB89808185FD05C0A889B9898C9125
:103CD00086FD0FC00FB607FCF5CF808185FFF2CFC0
:103CE000A889B9898C9185FFEDCFCE010E94391E3C
:103CF000E7CFDF91CF910895CF92DF92FF920F939C
:103D00001F93CF93DF931F92CDB7DEB76C0181E095
:103D1000D60158968C9358975B969C915B975C96CE
:103D20008C915C97981307C05096ED91FC91519738
:103D3000808185FD2EC0F601038D10E00F5F1F4FBF
:103D40000F731127F02EF601848DF81211C00FB6F3
:103D500007FCF9CFD6015096ED91FC9151978081E7
:103D600085FFF1CFC60169830E94391E6981EBCFBF
:103D7000838DE80FF11DE35AFF4F6083D6015B96F8
:103D80000C935B975296ED91FC91539780818062E2
:103D90000CC0D6015696ED91FC91579760835096D2
:103DA000ED91FC91519780818064808381E090E067
:103DB0000F90DF91CF911F910F91FF90DF90CF90E7
:103DC0000895BF92CF92DF92EF92FF92CF93DF934D
:103DD000EC016A017B01B22EE889F98982E08083D7
:103DE000411581EE580761057105A1F060E079E0A9
:103DF0008DE390E0A70196010E94FF232150310935
:103E0000410951095695479537952795211580E128
:103E1000380798F0E889F989108260E874E88EE143
:103E200090E0A70196010E94FF232150310941092A
:103E300051095695479537952795EC85FD85308333
:103E4000EE85FF852083188EEC89FD89B082EA8992
:103E5000FB89808180618083EA89FB898081886019
:103E60008083EA89FB89808180688083EA89FB8975
:103E700080818F7D8083DF91CF91FF90EF90DF90E5
:103E8000CF90BF9008951F920F920FB60F921124FA
:103E90002F938F939F93EF93FF93E0913A05F091C7
:103EA0003B058081E0914005F091410582FD12C003
:103EB0009081809143058F5F8F7320914405821715
:103EC00051F0E0914305F0E0E65DFA4F958F809365
:103ED000430501C08081FF91EF919F918F912F91B8
:103EE0000F900FBE0F901F9018951F920F920FB654
:103EF0000F9211242F933F934F935F936F937F9370
:103F00008F939F93AF93BF93EF93FF938AE295E0D4
:103F10000E94391EFF91EF91BF91AF919F918F91B8
:103F20007F916F915F914F913F912F910F900FBEB5
:103F30000F901F9018958AE295E00E94FE1D21E0E7
:103F4000892B09F420E0822F089510922D051092FC
:103F50002C0588EE93E0A0E0B0E080932E059093CE
:103F60002F05A0933005B093310586E093E0909340
:103F70002B0580932A0585EC90E09093370580937C
:103F8000360584EC90E0909339058093380580ECF9
:103F900090E090933B0580933A0581EC90E09093FC
:103FA0003D0580933C0582EC90E090933F05809323
:103FB0003E0586EC90E09093410580934005109279
:103FC0004305109244051092450510924605089548
:103FD000AF92BF92CF92DF92EF92FF920F931F9317
:103FE000CF93DF936C017B01C0E0D0E000E010E0F4
:103FF000F601EC0FFD1F4AE050E06281C7010E940C
:10400000AB215C016EE2C7010E94A2208A0D9B1DBC
:10401000080F191F2196C330D10551F74AE050E02F
:10402000F6016581C7010E94AB21800F911FDF91CE
:10403000CF911F910F91FF90EF90DF90CF90BF90A5
:10404000AF90089526E133E0FC0131832083128292
:1040500013821482158208950F93FC0186E193E088
:104060009183808362834383248305830F91089522
:1040700026E133E0FC0131832083FB014081518143
:1040800062817381FC014283538364837583089545
:10409000FB014081518162817381FC014283538322
:1040A00064837583089586E193E09093C8058093B7
:1040B000C7051092C9051092CA051092CB0510923F
:1040C000CC050895CF92DF92EF92FF920F931F934A
:1040D000CF93DF936C017A01EB01E60EF71E00E04F
:1040E00010E0CE15DF0561F06991D601ED91FC91EC
:1040F0000190F081E02DC6010995080F191FF1CF3D
:10410000C801DF91CF911F910F91FF90EF90DF9049
:10411000CF9008956115710581F0DB010D900020AD
:10412000E9F7AD0141505109461B570BDC01ED91F8
:10413000FC910280F381E02D099480E090E00895E5
:104140000C948A20DC01ED91FC910190F081E02D2E
:104150000994DB01ED91FC9111970190F081E02D24
:10416000BC01CD01099468E173E00C948A200F939F
:104170001F93CF93DF93EC010E948A208C01CE0124
:104180000E94B320800F911FDF91CF911F910F915B
:1041900008950F931F93CF93DF93EC010E94A92002
:1041A0008C01CE010E94B320800F911FDF91CF912F
:1041B0001F910F9108958F929F92AF92BF92CF92CD
:1041C000DF92EF92FF920F931F93CF93DF93CDB7C0
:1041D000DEB7A1970FB6F894DEBF0FBECDBF7C014E
:1041E000C42EE52FCB01D22E19A221E02D1510F0FF
:1041F0002AE0D22E8E010F5D1F4F8D2C912CA12C09
:10420000B12C6C2D7E2FA50194010E94FF238C2DD3
:10421000D29E80191124015011098A3014F4805D56
:1042200001C0895CF80180832115310541055105E4
:1042300021F0C22EE32FCA01E4CFB801C7010E94CA
:104240008A20A1960FB6F894DEBF0FBECDBFDF91D6
:10425000CF911F910F91FF90EF90DF90CF90BF9083
:10426000AF909F908F900895CF92DF92EF92FF9240
:104270000F931F93CF93DF93EC016A017B0121150C
:10428000310579F4E881F9810190F081E02D642F06
:10429000DF91CF911F910F91FF90EF90DF90CF9022
:1042A00009942A303105E9F477FF1AC06DE20E94C3
:1042B000A2208C0144275527BA014C195D096E09CB
:1042C0007F092AE0CE010E94DB20800F911FDF9141
:1042D000CF911F910F91FF90EF90DF90CF900895B5
:1042E0002AE0B701A601CE01DF91CF911F910F9176
:1042F000FF90EF90DF90CF900C94DB209A01AB0100
:10430000662757FD6095762F0C9434210F931F93E9
:10431000CF93DF93EC019A01AB01662757FD6095BF
:10432000762F0E9434218C01CE010E94B320800F91
:10433000911FDF91CF911F910F91089521153105A4
:1043400041F4DC01ED91FC910190F081E02D642FAE
:1043500009940C94DB209A01462F50E060E070E055
:104360000C949E210F931F93CF93DF93EC019A013E
:10437000462F50E060E070E00E949E218C01CE014B
:104380000E94B320800F911FDF91CF911F910F9159
:1043900008950F931F93CF93DF93EC010E949E210A
:1043A0008C01CE010E94B320800F911FDF91CF912D
:1043B0001F910F910895CF93DF9300D000D0CDB718
:1043C000DEB79B01AC01611571058105910569F0AE
:1043D00069833A834B835C830E94D22429813A818A
:1043E0004B815C810E94212403C060E070E0CB011E
:1043F0000F900F900F900F90DF91CF910895CF9273
:10440000DF92EF92FF926B017C01621773078407C2
:10441000950764F4CA01B9016C197D098E099F09D9
:104420000E94DB216C0D7D1D8E1D9F1DFF90EF9066
:10443000DF90CF90089570E09B01382BC90108955B
:10444000089508950E94D2220E9421220E9403040E
:10445000CBE2DEE10E947A012097E1F30E942B1E5D
:10446000F9CF1F920F920FB60F9211242F933F9303
:104470008F939F93AF93BF938091CE059091CF057B
:10448000A091D005B091D1053091CD0523E0230F47
:104490002D3720F40196A11DB11D05C026E8230F7C
:1044A0000296A11DB11D2093CD058093CE0590935A
:1044B000CF05A093D005B093D1058091D2059091FE
:1044C000D305A091D405B091D5050196A11DB11DCC
:1044D0008093D2059093D305A093D405B093D505CE
:1044E000BF91AF919F918F913F912F910F900FBEF0
:1044F0000F901F9018952FB7F8946091CE0570918A
:10450000CF058091D0059091D1052FBF08953FB779
:10451000F8948091D2059091D305A091D405B091E3
:10452000D50526B5A89B05C02F3F19F00196A11D02
:10453000B11D3FBF6627782F892F9A2F620F711DFB
:10454000811D911D42E0660F771F881F991F4A95B4
:10455000D1F70895CF92DF92EF92FF92CF93DF933E
:104560006B017C010E948722EB01C114D104E1049C
:10457000F10489F00E9420220E9487226C1B7D0B8F
:10458000683E734090F381E0C81AD108E108F10851
:10459000C851DC4FEACFDF91CF91FF90EF90DF90D1
:1045A000CF900895789484B5826084BD84B581608D
:1045B00084BD85B5826085BD85B5816085BDEEE62B
:1045C000F0E0808181608083E1E8F0E0108280810A
:1045D00082608083808181608083E0E8F0E0808178
:1045E00081608083E1EBF0E0808184608083E0EB98
:1045F000F0E0808181608083EAE7F0E08081846080
:1046000080838081826080838081816080838081DB
:10461000806880831092C10008958E3008F08E501B
:1046200087702091200190E4299F90011124822B12
:1046300080937C0080917A00806480937A008091DE
:104640007A0086FDFCCF809178002091790090E07F
:10465000922B0895833081F028F4813099F08230D4
:10466000A1F008958730A9F08830B9F08430D1F4F2
:10467000809180008F7D03C0809180008F77809330
:104680008000089584B58F7702C084B58F7D84BD86
:1046900008958091B0008F7703C08091B0008F7D26
:1046A0008093B0000895CF93DF9390E0FC01E4582D
:1046B000FF4F2491FC01E057FF4F8491882349F17B
:1046C00090E0880F991FFC01E854FF4FA591B49129
:1046D00082559F4FFC01C591D4919FB7611108C0CD
:1046E000F8948C91209582238C93888182230AC030
:1046F000623051F4F8948C91322F309583238C934F
:104700008881822B888304C0F8948C91822B8C93AF
:104710009FBFDF91CF9108950F931F93CF93DF93A6
:104720001F92CDB7DEB7282F30E0F901E859FF4FCF
:104730008491F901E458FF4F1491F901E057FF4FBC
:1047400004910023C9F0882321F069830E942A2361
:104750006981E02FF0E0EE0FFF1FE255FF4FA591BA
:10476000B4919FB7F8948C91611103C01095812387
:1047700001C0812B8C939FBF0F90DF91CF911F9130
:104780000F910895CF93DF93282F30E0F901E85976
:10479000FF4F8491F901E458FF4FD491F901E0579C
:1047A000FF4FC491CC2391F081110E942A23EC2F5A
:1047B000F0E0EE0FFF1FEC55FF4FA591B4912C9147
:1047C0002D2381E090E021F480E002C080E090E0C1
:1047D000DF91CF91089597FB072E16F4009407D030
:1047E00077FD09D00E94692407FC05D03EF490951E
:1047F00081959F4F0895709561957F4F0895A1E22F
:104800001A2EAA1BBB1BFD010DC0AA1FBB1FEE1F4A
:10481000FF1FA217B307E407F50720F0A21BB30B95
:10482000E40BF50B661F771F881F991F1A9469F711
:1048300060957095809590959B01AC01BD01CF016D
:104840000895052E97FB1EF400940E94382457FD0E
:1048500007D00E94FF2307FC03D04EF40C943824A9
:1048600050954095309521953F4F4F4F5F4F08959C
:1048700090958095709561957F4F8F4F9F4F0895CC
:104880006927962769277827872778270895A29F81
:10489000B001B39FC001A39F700D811D1124911D14
:1048A000B29F700D811D1124911D08950E9447240F
:1048B000A59F900DB49F900DA49F800D911D112474
:1048C0000895B7FF0C9456240E945624821B930B24
:1048D0000895AA1BBB1B51E107C0AA1FBB1FA61747
:1048E000B70710F0A61BB70B881F991F5A95A9F799
:1048F00080959095BC01CD010895EE0FFF1F0590A6
:10490000F491E02D09948F929F92AF92BF92CF9233
:10491000DF92EF92FF92CF93DF93EC016881798170
:104920008A819B81611571058105910521F464E2FD
:1049300079ED8BE597E02DE133EF41E050E00E9407
:10494000212449015A019B01AC01A7EAB1E40E946C
:1049500056246B017C01ACEEB4EFA50194010E94DA
:104960006424C60ED71EE81EF91EF7FE06C081E0BD
:10497000C81AD108E10880E8F80AC882D982EA8218
:10498000FB82C701B6019F77DF91CF91FF90EF9037
:10499000DF90CF90BF90AF909F908F9008950E942E
:1049A0008324089580E091E00E9483240895609319
:1049B0000001709301018093020190930301089517
:1049C000FB01DC0104C08D910190801921F441505C
:1049D0005040C8F7881B990B0895FB01DC0101903A
:0C49E0000D920020E1F70895F894FFCF3D
:1049EC0001000000080010000F000E000700060078
:1049FC000200B822DEADBEEFFEED2C01000000C0BF
:104A0C00014E6F7728293A20004E41005472616E96
:104A1C00736D6974204E54502052657175657374B2
:104A2C000054727920746F2066696E64204E545065
:104A3C0020726573706F6E73653A005365636F6EA9
:104A4C0064732073696E6365204A616E2031203176
:104A5C00393030203D2000556E69782074696D65C1
:104A6C00203D2000546865205554432074696D65C1
:104A7C0020697320004E6F204E5450205265737085
:104A8C006F6E7365203A2D2800536574757000465F
:104A9C0061696C656420746F20636F6E66696775FD
:104AAC0072652045746865726E6574207573696EE5
:104ABC00672044484350004950206E756D62657202
:104ACC002061737369676E65642062792044484382
:104ADC005020697320006E657720636C69656E7475
:104AEC0000485454502F312E3120323030204F4B4F
:104AFC0000436F6E74656E742D547970653A207432
:104B0C006578742F68746D6C00436F6E6E6563749A
:104B1C00696F6E3A20636C6F7365005265667265DF
:104B2C0073683A2035003C21444F4354595045207A
:104B3C0048544D4C3E003C68746D6C3E00616E6197
:104B4C006C6F6720696E70757420003C6272202F48
:104B5C003E003C2F68746D6C3E00636C69656E742E
:104B6C00206469736F6E6E65637465640000000089
:104B7C00009C066F0615061D0630063F061F1C1FFF
:104B8C001E1F1E1F1F1E1F1E1F57495A6E657400C5
:104B9C00000000003019591973197C199A19BD19A4
:104BAC00391AC1199619961AD01A461921192419AD
:104BBC004E19261900000000FF1AC51B151B00001A
:104BCC000000471C901C431CA41CEA1C5D1C031D0C
:104BDC006F1C841C951D8C1C301DCD1C281C2F1C7F
:104BEC003F1C000000007C1E6220FE1D171E091ECB
:104BFC005A1E00000000E81F0D0A006E616E00696D
:0A4C0C006E66006F7666002E000051
:00000001FF
