:100000000C9435300C9466300C9466300C94663049
:100010000C9466300C9466300C9466300C94663008
:100020000C9466300C9466300C9466300C946630F8
:100030000C9466300C9466300C9466300C946630E8
:100040000C9466300C9466300C9466300C946630D8
:100050000C9466300C9466300C9466300C94496DA8
:100060000C9466300C940C6B0C94426B0C946630C0
:100070000C9466300C9466300C9466300C946630A8
:100080000C9466300C9466300C9466300C94663098
:100090000C9466300C9466300C9466300C9491325B
:1000A0000C9466300C9466300C9466300C94663078
:1000B0000C9466300C9466300C9466300C94663068
:1000C0000C9466300C9466300C9466300C94663058
:1000D0000C9466300C9466300C9466300C94663048
:1000E0000C946630733F913FB83FCE3FCE3FCE3F3A
:1000F000E53F6D40733F6D4008406D40164016402F
:1001000033403340B83F99409940B83F16406D4066
:10011000CE3F41406D406D406D406D406D405B4055
:100120006D406D400641674250431F442A452A45B1
:10013000BC461048B54D1D490E4B7A4B434F1C50E1
:10014000F851F8515043EB5AEB5A5043EF50F952E3
:100150003E46C2538D549356BA554C579358ED5959
:10016000015AB549616E646E536E576E5D6E9B6E3B
:10017000686E6C6E726E766E7A6E806E846E886E4D
:100180009B6E8E6E926E966E05A84CCDB2D44EB913
:100190003836A9020C50B9918688083CA6AAAA2A2A
:1001A000BE000000803F2018205F0000000000001B
:1001B000000000000000000000000000000000003F
:1001C000000000000000000000000000000000002F
:1001D000000000000000000000000000000000001F
:1001E000000000000000000000000000000000000F
:1001F00000000000000000000000000000000000FF
:1002000000000000000000000000000000000000EE
:10021000000000120000001F8000000DC000001E42
:10022000E000003330000061980000CCCC0000CC2E
:100230006C00018036000302360007061B00018EA9
:100240001B0000F61B0000061B0000061B0000063A
:100250001B000007FB000007FB000000000000007F
:10026000000000000000000000000000000007FF88
:10027000FE0007FFFF00060003000600030006065D
:100280003300060633000600330006003300070083
:1002900033000380330001C0330000FC3300007CD6
:1002A0003300000C3F00000C1E00000C0000001B7F
:1002B000FC0000192400001FFC00000000000000EA
:1002C000000000000000000000000000000000002E
:1002D00000000080040000EFDC0000FFFC0000D004
:1002E0002C0000C00C000180060001800600030005
:1002F0000300030CC300030CC3000300030003034B
:100300000300018A4600018FC60000E01C00007057
:100310003800003FF000000FC000000000000000A7
:1003200000000000000000000000000000000000CD
:10033000000000E01E0003F7BF0003FFFF0003F012
:100340003F0003E01F0001800600019C66000335AA
:10035000B30003353300033CF300037C7B00033818
:100360007300018006000180060000E01C000070A0
:100370003800003FF000000FC00000000000000047
:10038000000000000000000000000000000000006D
:100390000000000FE00000303F00004000800080BF
:1003A00000800100008001300080023000800200E7
:1003B00001800200010002000100020101000201AF
:1003C0000100027F010002410100024102000241DE
:1003D00002000138FC0001880000007800000000E5
:1003E0000000000000000000000000000000000706
:1003F0008000001FE000003FF000007FF800007F59
:10040000FC0000FFFC0000FFFC0001C00E00019F8B
:10041000E600018CC60001CCCE0001C00E0001CC6C
:10042000CE000197A600018006000180060000C0F2
:100430000C0000FFFC00003FF00000000000000086
:1004400000000000000000000000000000000000AC
:10045000000000000000000000000000000001C0DB
:10046000000006C0030004400280064002400E2047
:100470000140012E0320009102200085FE2004454A
:1004800069200CC300201FE0006010000040180E1F
:1004900099800FF8E100000FBF000000000000008D
:1004A000000000000000000000000000000000004C
:1004B00000000070380000FFFC00008FC60001BF84
:1004C000F60001F87E0001E01F0003C00F0003806A
:1004D0000700038CC600038CC7000380070003835A
:1004E000070003C94F0003CFCF0003C00F0000F087
:1004F0003C0000FCFC00003FF00000030000000096
:1005000000000000000000000000000000000000EB
:10051000000000078000000FC0000019E000003953
:10052000E000005FE000003FE0000017E000001383
:10053000F0000013F0000033F8000023F80000235F
:10054000FC000023F0000033F000001BF000001F4F
:10055000F0000021F800003FF8000000000000005B
:10056000000000000000000000000000000000008B
:10057000000000000000000000000000002000005B
:1005800000E0000000C01FFFFFC01FFFFFC0107F82
:10059000FFC0157FFDC015BFF8E00AFFF8600F3FF0
:1005A000F00007FFC00001FF80000007800000008E
:1005B00080000000000000000000000000000000BB
:1005C000000000000000000000000000000000002B
:1005D0000000000000000000000000000000000C0F
:1005E0000000000F0000001FC00000FFE00001EF4E
:1005F000F1C003EFFB80066FFF000E63FF0007F3FF
:10060000FB8003EBF18000FFF040001C10000000B5
:1006100000000000000000000000000000000000DA
:1006200000000000000000000000000000000000CA
:100630000000000100000003000000070000000FA0
:100640000000001700000023010000C083000180AB
:100650004F0002603F0006603F0001804F0000C075
:1006600083000023010000170000000F00000007B6
:100670000000000300000001000000000000000076
:10068000000000000000000000000000000000006A
:10069000000000000000001FE0000067980000F06C
:1006A0003C0001E79E0003EFFF00020C310003F85D
:1006B000DF8007E8DF8007F81F8007F83F8007E842
:1006C000FF800728D380061CE18002172100021F4B
:1006D000E1000210210003F03F00000000000000D4
:1006E000000000000000000000000000000000000A
:1006F0000000001C7000001450000092940000FAEA
:10070000BE0000FABE0000FBBE0000739C00000F9C
:10071000E0000007C000001FF0000007C000001F3D
:10072000F000001FF0000007C0000003800000067A
:10073000C000000FE000000FE0000000000000001B
:1007400000000000000000000000000000000000A9
:1007500000000001C000000FE000003FA000007F8B
:10076000E000007DE00000F0000000F0000000FB71
:10077000E00000FFF00000FFF80000FFF800007F3D
:10078000FC00007FFC00007FFC000077FE0000778B
:10079000FE0000771F0000771C80000000000000B2
:1007A0000000000000000000000000000000000F3A
:1007B000C0000030300000C00C000180C600010104
:1007C000F2000203F1000207A10004076080040E9A
:1007D0000080040C0080041C0080041C0080041CA9
:1007E0000080023E0100023A0100011402000024D0
:1007F000060000200C0000303000000FC000000098
:1008000000000000000000000000000000000000E8
:10081000000000000000000000000000000007FFD2
:10082000FF800500008005C0008007FFFF8007FFF4
:10083000FF800400008004000080040000800400A9
:10084000008004000080040000800400008007FF96
:10085000FF80000000000000000000000000000019
:100860000000000000000000000000000000000088
:100870000000000000000000000000000000000078
:10088000000003FFFF800200008006FE3E8006FE9F
:1008900000800600008006FFFE8006FEFE80060047
:1008A000008007FFFF800400010007FFFF00000039
:1008B0000000000000000000000000000000000038
:1008C0000000000000000000000000000000000028
:1008D00000000000000000000000000038000000E0
:1008E000C600000082000000820003FF8380020037
:1008F0004480060738800618C08006104080061025
:1009000040800618C0800607008007FFFF800400B3
:10091000010007FFFF0000000000000000000000D1
:1009200000000000000000000000000000000000C7
:10093000000000440000004400000044000000FEED
:1009400000000082000000FE000000FE000000FE2B
:100950000000007C00000010000000107800001073
:10096000CC000010840000108400001084000019E6
:100970008400000F040000000400000000000000DC
:100980000000000000000000000000000000000067
:100990000000000000000000000000000000007CDB
:1009A000000000920000009200000082000000EEB3
:1009B000000000820000007C0000001078000010A1
:1009C000CC00001084000010840000108400001986
:1009D0008400000F0400000004000000000000007C
:1009E0000000000000000000000000000000000007
:1009F000000000020000000200000047100000CFCD
:100A0000980000EFB80001DFDC0003CF9E0001FF7B
:100A1000FC0001FFFC0003DFDE0003AFAE0007FFB8
:100A2000FF0003DFDE0003BFEE0007870F0007F7BC
:100A30007F0008E7388000E7380000000000000071
:100A400000000000000000000000000000000000A6
:100A500000000037B0000037B000003FF000003F5A
:100A6000F000003FF000001FE000000FC000000396
:100A700000000003000003C30F0001E31E0000F3A9
:100A80003C00007B7800003FF000001FE000000FFA
:100A9000C00000078000000300000000000000000C
:100AA0000000000000000000000000000000000244
:100AB0000000000200000007000000050000000226
:100AC000000000078000001FC00000272000001F5A
:100AD000C000003FE000007FF000009FC800003F22
:100AE000E00000FFF80001FFFC0003FFFE00040728
:100AF00001000007000000070000000000000000E7
:100B000000000000000000000000000000000000E5
:100B1000000000190000001B8000001FC000001F23
:100B2000E000001FF000003FF800007FFC0000FF25
:100B3000FE0000E10E0000E10E0000E10E0000FFEB
:100B4000FE0000FFFE0000E10E0000E10E0000E1EB
:100B50000E0000FFFE0000FFFE000000000000008D
:100B60000000000000000000000000000000000085
:100B70000000007FFC00004004000059B400005950
:100B8000B40000400400004004000059B4000059C3
:100B9000B40000400400004004000059B4000059B3
:100BA000B400004004000040040000418400004103
:100BB000840000418400007FFC0000000000000071
:100BC000000000000000000000000000000003FF23
:100BD000E0000200200002FFA0000200200002FF4F
:100BE000A0000200200002FFA0000200200002FF7F
:100BF000A0000200200002FFA00002FFA0000200EF
:100C0000200002FFA00002002000023E2000023E61
:100C10002000023E200003FFE00000000000000072
:100C200000000000000000000000000000000003C1
:100C3000000000030000000FC000000FC000000310
:100C4000000000030000000FC000001FE000007F54
:100C5000F80000FFFC0001FFFE0001FCFE0001F8AF
:100C60007E0001F87E0001F87E0001F87E0001F8A8
:100C70007E0001F87E0001F87E0000000000000008
:100C80000000000000000000000000000000000064
:100C9000000001FDFC000322260002000200020009
:100CA000020000222600007DFC000300000003007B
:100CB000000003000000030842000318C6000339C7
:100CC000CE00037BFE0003FFFE0003FFFE0003FFD8
:100CD000FE0003FFFE0003FFFE0000000000000016
:100CE0000000000000000000000000000000000103
:100CF0000000180FC06017DFEFA01071382010310E
:100D0000302010D12C201F1FE3E0001FE000001F47
:100D1000C000001FC000001FC000001FC000001F57
:100D2000C000001FE000001FE000001FE000001FE7
:100D3000E000001FE000001FE000000000000000D5
:100D400000000000000000000000000000000000A3
:100D50000000000FE000000C600000092000000906
:100D6000A00000082000000C6000000FE000007FE1
:100D7000FC00007FFC00007FFC0001FFFF0001FC85
:100D80007F0001F83F0001F83F0001F83F0001F843
:100D90003F0001F83F0001F83F00000000000000A4
:100DA000000000000000000000000000000000083B
:100DB0000000000F0000000BE000000878000008B1
:100DC0000800000F0800000BE80000087800000889
:100DD00008000008080000080800000808000008D3
:100DE00008000078080000F8080001F8080001F089
:100DF000780001E0F8000001F8000001F0000000B8
:100E0000E000000000000000000000000000000002
:100E10000000001C3800003E7C00003E7C00003ECC
:100E20007C00001C38000100000001CFF00001FF31
:100E3000F00001FFF00001FFF00001CFF00001071A
:100E4000E0000005A000000DB000000990000019AE
:100E500098000011880000318C00000000000000A4
:100E60000000000000000000000000000000000082
:100E70000000007FFE0000A014000140140001C02B
:100E80001800014018000140280001FFF80001404F
:100E900018000140140000C01C0000A0140000A0B5
:100EA0000C00007FFC0000A00E0000E00C0000E041
:100EB0000C0000C0140001FFF8000000000000005A
:100EC0000000000000000000000000000000000022
:100ED00000000000000000000E000001F600003ECF
:100EE000CE0003F9F000023E000003FFFE00031CE9
:100EF000E20003FFFE00007FFE00007FFE00007F97
:100F0000FE00007FFE00007FFE00007FFE00007FED
:100F1000FE000000000000000000000000000000D3
:100F200000000000000000000000000000000000C1
:100F3000000000FFE000008220000082200000FF8F
:100F400020000081200000FFE000008E200000FF54
:100F5000E0000080200000FFE00000872000008506
:100F6000E00000FD300000152E00006F2A00004157
:100F7000EE00003C3C000007F00000000000000014
:100F80000000000000000000000000000000000061
:100F90000000002000000020000000500000005869
:100FA00000000057000000290000002C80000024F1
:100FB0008000001250000049B8000044F0000043D7
:100FC0005C0000A0BF80071D7F8000A08F800040D4
:100FD000070000400000004000000000000000008A
:100FE0000000000000000000000000000000000001
:100FF0000000000F00000030C00000204000004052
:101000002300004026000040260000402E00002063
:101010005A000030F100000F190000051E00007793
:101020003C00007C7C0000FFF800007FF000001F07
:10103000E0000007C0000000C00000000000000049
:1010400000000000000000000000000000000000A0
:101050000000000120000006D8000004C800000DB8
:10106000A8000015FC000065A60000E3720001F670
:101070009C0003FB670000FC9700007E3F00003DE2
:10108000FF80001750000039D800000EC80000048F
:10109000C8000009B800001B0000000400000000A8
:1010A0000000000000000000000000000000001030
:1010B00018000010100004082000020BA0C001035B
:1010C000E1000083F200000FFC000033FE00086125
:1010D000FF0007763F0000780F00007C0F00003E05
:1010E0000600009FF800010FFA000607F900080348
:1010F000F880001BF8C000100000002084000020D1
:1011000084000000800000000000000000000000DB
:101110000000000000000003000000030000000FBA
:10112000C000001FE000003FF000007FF8000064F6
:10113000980000649800007FF8000000000001FFA4
:10114000FE0003FFFF0007FFFF8001F7BE0001F76D
:10115000BE0000E31C0000000000000000000000D2
:10116000000000000000000000000000000000007F
:10117000000000000000000000000000000000006F
:101180000000000000000003F8000FC7FC0001FF92
:10119000FC000007FC000007FC000000000000FF4E
:1011A000FF0001FFFF8001FFFF8001FFFF8001FFC3
:1011B000FF80010000800180018000FFFF0000002F
:1011C000000000000000000000000000000000001F
:1011D00000000000780000104400002024000047B8
:1011E000160000C89E0003504F0004504F000290AC
:1011F0004F000788878007871F8007E53FC00FF7EC
:101200007F000FF8FE0003FDFC00007DF800007F6A
:10121000F000007FF000007FF00000000000000000
:1012200000000000000000000000000000000001BD
:101230008000000380000003400000024000000422
:1012400040000004C0000003800000070000000E02
:1012500000000019C0000037E000003570000035C4
:1012600030000033300000192000001CE0000007AF
:10127000800000008000000E8000000E800000074B
:10128000000000000000000000000000000000005E
:10129000000000010000000180000001C00000010A
:1012A000E0000001700000011800000108000001CA
:1012B0000800000108000001080000011000000102
:1012C00020000001000000010000000F0000003FAE
:1012D0000000003E0000003C000000000000000094
:1012E00000000000000000000000000000000000FE
:1012F000000007FFFF800400008004FFFC8005FF62
:10130000FE8005FF068005FF068005FF068005FFBD
:10131000F68005FFF68005FFF68005FFFE8005FFDD
:10132000FE8005FFFE8005FFFE8004000080059B17
:10133000C0800400008007FFFF8000000000000064
:10134000000000000000000000000000000000009D
:10135000C00000018000000200000004000000083E
:101360000000001000000020000003FFFE00024FFC
:101370000E00024CE600027DF600024BFA00024B22
:10138000FA00027BFA00027BFA00027DF600027C82
:10139000E600027F1E0001FFFC00000000000000CC
:1013A000000000000000000000000000000000003D
:1013B0000000000FE0000016D000001930000016F9
:1013C000D0000016D000001930000016D000003FF9
:1013D000F80000301800003FF800003FF800003F20
:1013E000F800002FE80000200800001FF0000003B4
:1013F000800000038000000FE000000000000000FB
:1014000000000000000000000000000000000000DC
:10141000000000000000000000000000000000FFCD
:10142000FC0007FFFF800FFFFFC00FC00FC0000FC1
:10143000C0000F9CE7C0003030000030300000607A
:10144000180000E01C0000F03C0001F03E0001F834
:101450007E0001FFFE0001FFFE0000000000000012
:10146000000000000000000000000000000000007C
:101470000000000003E000003C100001F008001E26
:101480003C0400FC3E0401833C04010138040206D4
:10149000B0047E18B0048117B00480E8B004C028FE
:1014A000B0045F988004204880041004803808034A
:1014B00083C004019C0003FFE00000000000000066
:1014C000000000000000000000000000000000001C
:1014D0000000000003E000001C100001E008000E06
:1014E0000004007C000401830004010100040200E8
:1014F00080147E0080E481008FE480C0BFE4C020BF
:10150000B1C45F9080C42048800410048038080271
:1015100083C004019C0003FFE00000000000000005
:1015200000000000000000000000000000000000BB
:1015300000000FF000000810000008100000780FF5
:10154000FE00400002004000020041FFFFF84100A1
:101550000008420000104200001044000020480033
:1015600000204800004050000080500000806000D3
:101570000100600001007FFFFE000000000000008D
:10158000000000000000000000000000000000005B
:101590000000001FE000003FF0000030300000308D
:1015A000300007FFFF8007FFFF8007FFFF8007FF76
:1015B000FF8007FFFF8007FFFF8007FFFF8007FF17
:1015C000FF8007FFFF8007FFFF8007FFFF8007FF07
:1015D000FF8007FFFF8007FFFF8000000000000082
:1015E00000000000000000000000000000000000FB
:1015F000000000000000000FE000001FF000073FA7
:10160000F8000740040007FFFFC007FFFFC007F80E
:101610003FC007F01FC007E00FC007E00FC007E0A2
:101620000FC007E00FC007E00FC007F01FC007F8AA
:101630003FC007FFFFC007FFFFC000000000000021
:10164000000000000000000000000000000000009A
:101650000000000FC0000030300000400800008390
:10166000040001030200010302000203010002035F
:1016700001000203F9000203F90002000100020068
:10168000010001000200010002000080040000408F
:10169000080000303000000FC00000000000000013
:1016A000000000000000000000000000000000003A
:1016B000000000000000000000000000000000002A
:1016C00000000F00000010800000108003C0108098
:1016D0001FE00FF07F00003FF800001FE000001F38
:1016E000E000003FF8000FF07F0010801FC0108066
:1016F00003E0108000000F00000000000000000068
:1017000000000000000000000000000000000000D9
:1017100000000007C000001830000033D800002C83
:1017200068000050140000501400005014000050D5
:10173000140000FFFE0000FFFE0000FEFE0000FCA3
:101740007E0000FEFE0000FEFE00007EFC00003F6A
:10175000F800001FF0000007C000000000000000BB
:101760000000000000000000000000000000000079
:1017700000000000F8000001FC000003FE0000076C
:10178000C7000007C7000007C7000007FF00000FE1
:10179000FF00000FFE00000FFC00003FF800003FBC
:1017A000000000FE000000FC000003F8000003F051
:1017B000000003E0000003C0000000000000000083
:1017C0000000000000000000000000000000000019
:1017D0000000000000000000000000000000003FCA
:1017E000F000002010000040080000400800004009
:1017F00008000080040001FFFF00039FE700030FC3
:10180000C300030FC300039FE70003FFFF0000E0D6
:101810001C0000E01C0000E01C00000000000000B4
:1018200000000000000000000000000000000000B8
:101830000000000000000007800000048000001F7E
:10184000E0000020100000401000004008000040B0
:1018500008000080040001FFFF00039FE700030F62
:10186000C300030FC300039FE70003FFFF0000E076
:101870001C0000E01C0000E01C0000000000000054
:101880000000000000000000000000000000000058
:10189000000000FFFC0000E01C0001E01E0001FF52
:1018A000FE00010002000100020001000200010030
:1018B00002000100020001FFFE0001CFCE000187FF
:1018C00086000187860001CFCE0001FFFE00007078
:1018D0003800007038000070380000000000000080
:1018E00000000000000000000000000000000000F8
:1018F0000000007FFC00007FFC000040040000406E
:1019000004000040040000400400004004000040C7
:10191000040000400400007FFC0000478C000047EA
:101920008C0000478C00007FFC0000301800002075
:1019300008000040040001800300000000000000D7
:101940000000000000000000000000000000000097
:10195000000000070000000700000007000000076B
:10196000800000078000010780000187C000018718
:10197000C00001FFFF8001FFFF8001FFFF800187A2
:10198000C000018780000107800000078000000779
:101990000000000700000007000000000000000039
:1019A0000000000000000000000000000000000037
:1019B00000000000000000000000000000000FFF19
:1019C000C0000FFFC0000FFFC0000FFFFF000FFFA0
:1019D000F8800FFFF8800FFFF8800FFFF84000003D
:1019E0003FC00FFFFFC00F01F9C00EC6F6C00DEFDC
:1019F0006F4001EF0F0000C606000000000000006D
:101A000000000000000000000000000000000000D6
:101A1000000000000000000001C00000066000009F
:101A2000082000001E2000006E400000B58000036A
:101A30004B0000049400001B68000024B000005B11
:101A4000400001A58000015A0000026C0000045013
:101A500000000CE000000F0000001000000000007B
:101A60000000000000000000000000000000000076
:101A7000000000004000000060000000F000000FC7
:101A8000C0000033800000478000008E63F0011C1E
:101A90001E700138027002380270027B0270047CF2
:101AA000027004800270078006700B7FFBF00A0052
:101AB00000700C00000000000000000000000000AA
:101AC0000000000000000000000000000000000016
:101AD0001000000038000000F8000000F8000001CD
:101AE000F8000001F8000003F8000003F000000710
:101AF000F0000005F000000F6000000DC000000FB6
:101B00006000000BC00000168000001200000022E0
:101B1000000000230000003C000000200000000046
:101B200000000000000000000000000000000000B5
:101B300000000007FC0000181C00003FE40000202B
:101B4000240000272400002024000020240000207E
:101B500024000020240000202400003FE400002096
:101B6000240000272400002024000020240000205E
:101B7000280000203000003FE000000000000000CE
:101B80000000000000000000000000000000000055
:101B90000000001FE00000201000002010000030B6
:101BA0005000002FD0000017E0000013A000000B31
:101BB0004000000580000005800000094000001181
:101BC0002000001120000021100000279000002FAD
:101BD000D000002FD000001FE00000000000000037
:101BE00000000000000000000000000000000000F5
:101BF000000007FDFF000C0701803C0201E03402F9
:101C00000160340201603402016034020160340278
:101C10000160340201603402016034020160340268
:101C200001603402016037FAFF6038070160380252
:101C300000E03FFAFFE0000F80000000000000001D
:101C40000000000000000000000000000000000094
:101C5000000000FFFE000080020000800200008003
:101C6000020000800200008002000080020000806C
:101C7000020000800200008002000080020000805C
:101C800002000080020000803E00008024000080EE
:101C900028000080300000FFE0000000000000008D
:101CA0000000000000000000000000000000000034
:101CB000000000FFFE00008002000080020000BF64
:101CC0008200008002000080020000BFFA0000BF16
:101CD000FA000080020000BFFA000080020000BF8E
:101CE000FA000080020000BFBE00008024000080D7
:101CF00028000080300000FFE0000000000000002D
:101D000000000000000000000000000000000000D3
:101D10000000000FFF800008008000080080007FA6
:101D2000FC800040048001FFF48001001480010069
:101D30001480017F948001001480017F9480010051
:101D40001480017F94800100148001001480017FC1
:101D5000948001001480017F978001001400017EAF
:101D6000140001001C0001FFF00000000000000052
:101D700000000FFFFFE008000020080003A009FC9E
:101D800003A0080003A009FC03A0080003A00800AA
:101D90000020080000200800002009FFF8200800AB
:101DA000002009FFF8200800002009FFF8200800A3
:101DB0000020080000200FFFFFE0000000000000EE
:101DC0000000000000000000000000000000000013
:101DD00000000FFFFFE00C0000600A0000A00900F7
:101DE0000120088002200840042008200820081054
:101DF000102008082020080C6020081AB0200823B2
:101E000088200840042008800220090001200A00E0
:101E100000A00C0000600FFFFFE0000000000000C9
:101E200000000000000000000000000000000000B2
:101E3000000001FFFC0001E01E0001E0DE0001E007
:101E4000DE0001E0DE0001E0DE0001E01E0001FF37
:101E5000FE0001800600018006000180060001806E
:101E60000600018006000180060001800600018056
:101E700006000180060001FFFE00000000000000D7
:101E80000000000000000000000000000000000052
:101E9000000003FFFF000200030002000300020035
:101EA00003000200020003FFFF0003FFFF0003F82E
:101EB000FF0003F07F0003F07F0003F07F0003F8D2
:101EC000FF0003FFFF0003FCFF0003FCFF0003FC17
:101ED000FF0003FCFF0003FFFF0000000000000004
:101EE00000000000000000000000000000000000F2
:101EF000000000000000000000000000000007FFDC
:101F0000FF8007FFFF8007FFFF8004F87C80048CC0
:101F1000C480058CC680058CC68004FCFC8004F857
:101F20007C8007FFFF8007FFFF8006FFFD80000029
:101F300000000000000000000000000000000000A1
:101F40000000000000000000000000000000000091
:101F50000000000FC000003E3000007E080000FEC0
:101F600004000178020001F7820002F8610003F02A
:101F7000310003E3110003E31F0002231F000210DE
:101F80003F0001187E000107FE000081FC000041B7
:101F9000F8000031F000000FC00000000000000059
:101FA0000000000000000000000000000000000031
:101FB0000000000FC0000031F000005FF80000A733
:101FC000FC0001D9FE0001A7FE0001D83E0003A0DD
:101FD0001F0003A31F0003E31F0003E31D0001E034
:101FE0002E0001F03A0001FFEA0000FE7400007FBD
:101FF000C800003E3000000FC000000000000000DC
:1020000000000000000000000000000000000000D0
:10201000000001FFFE0001000200017FFE00014000
:102020000600014006000140060001400600014094
:1020300006000140060001400600017FFE0001FF8E
:10204000FE0001FFFF0001000100036F798002DF45
:10205000BC800200008003FFFF8000000000000041
:102060000000000000000000000000000000000070
:10207000000000010000000100000003000000FE5D
:1020800000000100000001000000010000001FFF2F
:10209000FFC0100000401000004017BDEDC0100050
:1020A000004017BDEDC010000040177EEDC01000CD
:1020B0000040100000401FFFFFC0000000000000B3
:1020C0000000000000000000000000000000000010
:1020D000000000000000003FF00000400800004049
:1020E00008000040080000407F0000408980004058
:1020F00088800380FF8000008080000080800000D6
:1021000080800000808000008080000080800000CF
:10211000C1800000630000003E00000000000000DD
:1021200000000000000000000000000000000000AF
:10213000000000000000000000000000000000009F
:10214000000000000000000000000000000000008F
:102150000000000000000000000001FFFF0001007F
:102160000100013FF9000100010001000900010028
:1021700001000100010001FFFF000000000000005D
:10218000000000000000000000000000000000014E
:102190000000000780000007C000000BA000000B3B
:1021A000A00000092000000920000007C000000571
:1021B0002000001A20000013100000129000001CE4
:1021C0007800001C3800001C3800001C3800001C7F
:1021D0003800000C3000000E7000000660000000A7
:1021E00000000000000000000000000000000000EF
:1021F000000000187000002578000027F800001F7C
:10220000F000007FE00000FF800001FF800001FC83
:10221000800000F2400000E22000000120000001E8
:102220001000000090000000880000004400000042
:1022300024000000220000001C000000000000003C
:10224000000000000000000000000000000000008E
:10225000000000000000000000000000000000007E
:102260001E00000021000000210000004780000047
:1022700088000003078001EC21000210DE000783C4
:1022800000000084000000C8000007900000021059
:10229000000001E00000000000000000000000005D
:1022A000000000000000000000000000000000002E
:1022B000000000000F0000001F8000003F800000B1
:1022C0007F8000007F0000007E000001FC00000015
:1022D000F800000160000002A00000050000000AF4
:1022E0000000001400000028000000D000000120C1
:1022F00000000220000002400000018000000000F9
:1023000000000000000000000000000FFC000008BA
:102310000600000BF70000080080000BFE8000089C
:10232000008007FBFEC0064800C0064B80C0064880
:1023300000C0065FFFC00650004006506F400650C8
:102340006F4006506F4006576F4006576F40065764
:102350006F4007D0004007FFFFC0000000000000F2
:10236000000000000000000000000000000000006D
:10237000000000FFF0000080380000803C0000807A
:102380003C00008004000080040000800400008005
:10239000040003FFFF00020001000FFFFFC009243B
:1023A00080400924804009FF804008000040080068
:1023B00000400FFFFFC003FFFF000000000000000F
:1023C000000000000000000000000000000000000D
:1023D0000000000000000000000000000000007885
:1023E000000000780000007BE000007A2000007A06
:1023F000200000FE3C000080040003BF77000200C4
:1024000001000200010003FFFF0001FFFE0001FFC9
:10241000FC0001FFFC0000FFF800000000000000CD
:1024200000000000000000000000000000000000AC
:10243000000000070000000D8000001AC000001519
:10244000400000174000001240000067300000D23A
:10245000580001974C000217420002124200021875
:10246000C20003E73E0003E73E00003DE000003D00
:10247000E000000000000018C000003DE000000A7D
:1024800080000002000000000000000000000000CA
:10249000000000000000000000000000000000003C
:1024A00000000007000000380000007800000077FE
:1024B000FFC00037FDC0002FF80003EFE7000467FE
:1024C000E8800893D0400991FE400BD0FE400910EF
:1024D00010400420088003C0070000000000000036
:1024E00000000000000000000000000000000000EC
:1024F00000000000000000000000000000000000DC
:10250000000000000000000F000000080000001F95
:10251000F0000034300003E44F8006725CC00C5AB7
:10252000946008C9A6200889FE20080820200C1005
:102530001060063018C003E00780000000000000B3
:1025400000000000000000000000080C205F0000F8
:1025500000000000000000000000000020202020FB
:102560002020002000000028505000000000000043
:10257000000000002828FC2850FC505000000020DB
:1025800078A8A0603028A8F02000000048A8B0502B
:10259000283454480000000020505078A8A8906CBF
:1025A0000000004040800000000000000000000427
:1025B0000810101010101008040000402010101017
:1025C00010101020400000000020A87070A820000B
:1025D00000000000202020F8202020000000000043
:1025E000000000000000004040800000000000F8F3
:1025F000000000000000000000000000000000409B
:102600000000000810101020204040408000000012
:1026100070888888888888700000000020602020EA
:10262000202020700000000070888810204080F872
:102630000000000070880830080888700000000062
:10264000103050509078101800000000F88080F092
:102650000808887000000000709080F088888870FA
:1026600000000000F8901020202020200000000032
:10267000708888708888887000000000708888885A
:1026800078084870000000000000200000000020D2
:1026900000000000000000200000002020000004D6
:1026A0000810204020100804000000000000F8007E
:1026B00000F800000000004020100804081020402E
:1026C000000000007088881020200020000000001A
:1026D000708898A8A8B880780000000020203050AA
:1026E000507848CC00000000F0484870484848F056
:1026F00000000000788880808080887000000000E2
:10270000F0484848484848F000000000F848507039
:10271000504048F800000000F8485070504040E039
:1027200000000000384880809C884830000000008D
:10273000CC484878484848CC00000000F8202020C9
:10274000202020F8000000007C10101010101090C5
:10275000E0000000EC485060505048EC00000000E1
:10276000E0404040404044FC00000000D8D8D8D8A9
:10277000A8A8A8A800000000DC486868585848E8E5
:102780000000000070888888888888700000000039
:10279000F0484870404040E00000000070888888A1
:1027A00088E8987018000000F0484870504848ECDD
:1027B0000000000078888060100888F000000000A9
:1027C000F8A820202020207000000000CC484848B5
:1027D0004848483000000000CC4848505030202085
:1027E00000000000A8A8A870505050500000000041
:1027F000D8505020205050D800000000D850502011
:102800002020207000000000F8901020204048F8A0
:102810000000003820202020202020203800004008
:102820004040202010101008000000701010101000
:102830001010101070000020500000000000000078
:1028400000000000000000000000000000FC00206C
:102850000000000000000000000000000000003048
:102860004838483C00000000C0404070484848706C
:102870000000000000000038484040380000000020
:10288000180808384848483C0000000000000030A4
:1028900048784038000000001C2020782020207854
:1028A000000000000000003C483040784438000040
:1028B000C0404070484848EC000000002000006024
:1028C00020202070000000001000003010101010B8
:1028D00010E00000C040405C507048EC0000000078
:1028E000E0202020202020F800000000000000F060
:1028F000A8A8A8A800000000000000F0484848EC84
:10290000000000000000003048484830000000008F
:10291000000000F04848487040E000000000003827
:1029200048484838081C0000000000D8604040E0DB
:10293000000000000000007840300878000000002F
:10294000002020702020201800000000000000D887
:102950004848483C00000000000000EC485030208F
:1029600000000000000000A8A87050500000000007
:10297000000000D8502050D800000000000000ECFB
:102980004850302020C0000000000078102020783F
:102990000000001810101020101010101800101057
:1029A00010101010101010101010006020202010B7
:1029B00020202020600040A418000000000000003B
:1029C00000001830205F0000000000000000000040
:1029D00000000000000000000000000000000000F7
:1029E00000000000000000000000000000000000E7
:1029F00000000000000000000000000000000000D7
:102A000000000000000000000000000000000000C6
:102A100000000000000000000000000000000000B6
:102A200000000000000000000000000000000000A6
:102A30000000000000000000000000000000000096
:102A40000000000000000000000000000000000086
:102A50000000000000000000000000000000000076
:102A60000000003E00007E00007E00007E00007E30
:102A700000007E00007E00007E00007E00007E00E0
:102A8000007E00007E00007E00007E00007E0000D0
:102A90007E00007E00007E00007E00007E00003E82
:102AA00000003C00003C00003C00003C00003C00FA
:102AB0000000000000000000000000000000000016
:102AC0007E00007E00007E00007E00007E00007E12
:102AD00000007E0000000000000000000000000078
:102AE00000000000000000000000000000000003E3
:102AF000E07803E0F803E0F807C1F807C1F00FC180
:102B0000F00FC3F00FC3F01F87F01F87E01F87F09F
:102B10001F87F01F87F01F87F01F87F01F87F000C7
:102B200000000000000000000000000000000000A5
:102B30000000000000000000000000000000000095
:102B40000000000000000000000000000000000085
:102B50000000000000000000000000000000000075
:102B60000000000000000000000000000000000065
:102B70000000000000000000000000000000000055
:102B80000000000000007C3C007C7C00787C007829
:102B90007C00787800F87800F8F800F8F800F0F099
:102BA0003FFFFF3FFFFF3FFFFF3FFFFF3FFFFF3FB5
:102BB000FFFF03E1E003E1E003E3E003C3E003C35D
:102BC000E007C3C007C7C0FFFFFCFFFFFCFFFFFC1F
:102BD000FFFFFCFFFFFCFFFFFC0F0F800F0F801FAC
:102BE0000F001F0F001F1F001E1F001E1F003E1E94
:102BF000003E1E0000000000000000000000000079
:102C0000000000000000001800001C00001C000074
:102C10001C00001C00001C00003E0001FFE003FF40
:102C2000F007FFF00FFFF00FFFF00FDDF01F9C30FB
:102C30001F9C001F9C001F9C001F9C001FDC000F9E
:102C4000FC000FFF0007FFC007FFE003FFF001FFDC
:102C5000F0007FF8001FF8001DF8001CFC001CFCB1
:102C6000001CFC181CFC1C1CF81F9DF81FFFF81F03
:102C7000FFF01FFFF00FFFE007FFC000FF00001C88
:102C800000001C00001C00001C00001C00001C00B8
:102C9000001C000018000000000000000000000000
:102CA00000000000000000000FC0001FE0003FF027
:102CB000007FF0007FF800787800F07800F078006E
:102CC000F078007878007CF8007FF0043FF01E3F39
:102CD000E07E1FC1F80787E0000F80003E0000FC87
:102CE0000003F0000FC1F03F03F83C07FC300FFE7B
:102CF000000FFE000F1E001E0F001E0F001E0F0013
:102D00001E0F000F1E000FFE000FFE0007FC000349
:102D1000F80001F0000000000000000000000000CA
:102D200000000000000000000000000000000000A3
:102D30003E0000FFC001FFC003FFC007FFC007FF48
:102D4000C00FF3C00FC0400FC0000FC0000FC00085
:102D50000FC00007E00007E00003F00003F00007E9
:102D6000F8000FF8000FFC001FFC003FFE1F3F7E25
:102D70001F3E7F1F7E3F1F7C1F9F7C1F9F7C0FDE9F
:102D80007C0FFE7C07FE7E07FE7E03FC7F03FC7F3C
:102D900003F83FCFF83FFFFC1FFFFC1FFFFE0FFFB4
:102DA000FE03FE3F00F800000000000000000000ED
:102DB0000000000000000000000000000000000013
:102DC0000F80000F00001F00001F00003F00003FA9
:102DD00000003E00007E00007E0000FE0000FE00BD
:102DE00000FE0000FE0000FE0000FE0000FE0000ED
:102DF00000000000000000000000000000000000D3
:102E000000000000000000000000000000000000C2
:102E100000000000000000000000000000000000B2
:102E200000000000000000000000000000000000A2
:102E30000000000000000000000000000000000092
:102E40000000000000000000000007C00007C000F4
:102E50000F80000F80001F80001F00001F00003F38
:102E600000003E00003E00007E00007E00007C006E
:102E7000007C0000FC0000FC0000FC0000FC0000E6
:102E8000FC0000F80000F80000F80000F80000F86E
:102E90000000F80000F80000FC0000FC0000FC004E
:102EA00000FC0000FC0000FC00007C00007C000036
:102EB0007E00007E00003E00003E00003F00001F3C
:102EC00000001F00000F80000F80000F800007C06F
:102ED0000007C000000000000003E00001F0000156
:102EE000F00000F80000F80000F800007C00007C12
:102EF00000007E00007E00003E00003E00003F001B
:102F0000003F00003F00001F00001F00001F800066
:102F10001F80001F80001F80001F80001F80001F77
:102F200080001F80001F80001F80001F80001F8006
:102F3000001F00001F00003F00003F00003F000096
:102F40003E00003E00007E00007E00007C00007C11
:102F50000000F80000F80000F80001F00001F000A7
:102F600003E000000000000000000000000000007E
:102F70000000000000000000000000000000000051
:102F800000003C00003C00003C00003C00003C0015
:102F9000303C0C383C1C7C3C3E7E3C7E3FBDFC1FE4
:102FA000FFF807FFF003FFC000FF80007F0000FF75
:102FB0008003FFC007FFF01FFFF83FBDFC7E3C7E93
:102FC0007C3C3E383C1C303C0C003C00003C00008B
:102FD0003C00003C00003C0000000000000000003D
:102FE00000000000000000000000000000000000E1
:102FF00000000000000000000000000000000000D1
:1030000000000000000000000000000000000000C0
:1030100000003E00003E00003E00003E00003E007A
:10302000003E00003E00003E00003E00003E00006A
:103030003E007FFFFE7FFFFE7FFFFE7FFFFE7FFFE4
:10304000FE7FFFFE003E00003E00003E00003E000E
:10305000003E00003E00003E00003E00003E00003A
:103060003E00003E000000000000000000000000E4
:103070000000000000000000000000000000000050
:103080000000000000000000000000000000000040
:103090000000000000000000000000000000000030
:1030A0000000000000000000000000000000000020
:1030B0000000000000000000000000000000000010
:1030C0000000000000000000000000000000000000
:1030D00000000000000000000000000000000000F0
:1030E000007F00007F00007F00007F00007F000065
:1030F0007F00007F00007F00007E00007E0000FC5B
:103100000000FC0000F80000F80000F80001F000EA
:1031100000E00000000000000000000000000000CF
:10312000000000000000000000000000000000009F
:10313000000000000000000000000000000000008F
:10314000000000000000000000000000000000007F
:1031500000000000003FFFFE3FFFFE3FFFFE3FFF7D
:10316000FE3FFFFE3FFFFE3FFFFE000000000000AD
:10317000000000000000000000000000000000004F
:10318000000000000000000000000000000000003F
:10319000000000000000000000000000000000002F
:1031A000000000000000000000000000000000001F
:1031B000000000000000000000000000000000000F
:1031C00000000000000000000000000000000000FF
:1031D00000000000000000000000000000000000EF
:1031E00000000000000000000000000000000000DF
:1031F00000000000000000000000000000000000CF
:10320000000000000000000000007F00007F0000C0
:103210007F00007F00007F00007F00007F00007FB4
:1032200000007F000000000000000000000000001F
:10323000000000000000000000000000000000008E
:10324000000000000000000000003C00007C0000C6
:10325000780000F80000F00000F00001F00001E04C
:103260000003E00003C00007C000078000078000E3
:103270000F80000F00001F00001E00003E00003EF7
:1032800000003C00007C0000780000F80000F00026
:1032900001F00001E00001E00003E00003C00007CE
:1032A000C0000780000F80000F80000F00001F008B
:1032B000001E0000000000000000000000000000F0
:1032C00000000000000000000000000000000000FE
:1032D0003C0000FF0001FFC003FFC007FFE007FF45
:1032E000F00FFFF00FE3F00FC3F80FC1F81F81F8E4
:1032F0001F83F81F83FC1F87FC1F87FC1F8FFC1F89
:103300008FFC1F8EFC1F9CFC1F9CFC1FB8FC1F38F1
:10331000FC1F70FC1FF0FC1FF0FC1FE0FC1FE0FC1A
:103320001FC1FC1FC1F81F81F81F81F80FC3F80FE0
:10333000C3F00FFFF007FFF007FFE003FFE001FF1E
:10334000C000FF80007E00000000000000000000C0
:10335000000000000000000000000000000000006D
:103360000000007F0003FF000FFF000FFF000FFFB2
:10337000000FFF000FFF000FBF000C3F00003F00D9
:10338000003F00003F00003F00003F00003F000002
:103390003F00003F00003F00003F00003F00003FB3
:1033A00000003F00003F00003F00003F00003F00E2
:1033B000003F00003F00003F00003F00003F000FC3
:1033C000FFFC0FFFFE0FFFFE0FFFFE0FFFFE0FFFC4
:1033D000FE0FFFFC000000000000000000000000E5
:1033E00000000000000000000000000000000000DD
:1033F000780007FF001FFFC01FFFE01FFFE01FFF57
:10340000F01FCFF01C03F81803F80001F80001F8D2
:103410000001F80001F80001F80001F80003F000D5
:1034200003F00007E0000FE0000FC0001FC0003FE6
:1034300080003F00007F0000FE0000FC0001F8005B
:1034400003F80007F00007E0000FC0001F80001F16
:10345000FFF83FFFF83FFFF83FFFF83FFFF83FFF5F
:10346000F83FFFF80000000000000000000000002E
:10347000000000000000000000000000000000004C
:103480007C0007FF000FFFC01FFFE01FFFF01FFFC2
:10349000F01FFFF01E07F80801F80001F80001F81E
:1034A0000001F80001F80001F80003F000FFF0004F
:1034B000FFE000FFC000FF0000FFC000FFE000FFD2
:1034C000F00007F00001F80001F80000FC0000FC2B
:1034D0000000FC0000FC0000FC0000FC1001FC1CD3
:1034E00003F81FFFF81FFFF81FFFF01FFFE01FFF8B
:1034F000C00FFF8001FE000000000000000000007F
:1035000000000000000000000000000000000000BB
:1035100000000007E00007F0000FF0000FF0001FB0
:10352000F0001FF0003FF0003FF0007FF0007FF060
:1035300000FBF000F3F001F3F001F3F003E3F0031C
:10354000E3F007C3F007C3F00F83F00F83F01F030E
:10355000F01F03F03E03E03FFFFC3FFFFE3FFFFE96
:103560003FFFFE3FFFFE3FFFFE3FFFFC0003E0008A
:1035700003E00003F00003F00003F00003F0000399
:10358000F00003E000000000000000000000000068
:10359000000000000000000000000000000000002B
:1035A00000000FFFF00FFFF00FFFF00FFFF00FFF15
:1035B000F00FFFF00FFFF00F80000F80000F800072
:1035C0000F80000F80000F80000FFE000FFF800FA4
:1035D000FFC00FFFE00FFFF00FFFF00F9FF80C038D
:1035E000F80001F80001FC0000FC0000FC0000FCF9
:1035F0000000FC0000FC0000FC0001FC0001F81CC5
:1036000007F81FFFF81FFFF01FFFE01FFFE01FFF7D
:10361000C00FFF0001FC00000000000000000000DF
:10362000000000000000000000000000000000009A
:103630000700003FE000FFF001FFF003FFF003FF91
:10364000F007FFF007F0300FE0100FC0000FC000D0
:103650001F80001F80001F80001F9F801F3FC01F12
:103660007FF01FFFF01FFFF81FFFF81FF3FC1FC1C3
:10367000FC1FC0FC1FC0FC1F80FC1F807C1F807CC7
:103680001F807C1F807C1F80FC0FC0FC0FC0FC0FC4
:10369000C1FC0FF3F807FFF807FFF003FFF001FF8D
:1036A000E000FFC0003F000000000000000000003C
:1036B000000000000000000000000000000000000A
:1036C00000001FFFF81FFFF81FFFF81FFFF81FFF84
:1036D000F81FFFF81FFFF80001F80003F00003F0E7
:1036E0000003F00007F00007E00007E00007E0003B
:1036F0000FC0000FC0000FC0001F80001F80001F00
:1037000080003F80003F00003F00007F00007E00FF
:10371000007E00007E0000FC0000FC0000FC0001B8
:10372000F80001F80001F80003F80003F00003F0CE
:103730000003F00000000000000000000000000096
:103740000000000000000000000000000000000079
:103750003C0000FF8003FFC007FFE007FFF00FFF02
:10376000F00FFFF00FC3F81F81F81F80F81F80F8DB
:103770001F80F81F80F80F81F80F81F00FC3F0074A
:10378000FFF003FFE001FF8001FFC007FFE007FF3C
:10379000F00FE7F01F81F81F80F81F00FC1F00FCEE
:1037A0001F00FC1F00FC1F00FC1F00FC1F80FC1FF3
:1037B00081F81FE7F80FFFF80FFFF007FFF003FF96
:1037C000E001FFC0007E00000000000000000000DB
:1037D00000000000000000000000000000000000E9
:1037E000000000FF0003FF8007FFC007FFE00FFF9E
:1037F000F00FFFF01FC3F01F81F81F01F81F01F841
:103800001F01F83F00FC3F01FC3F00FC3F01FC1F93
:1038100001FC1F81FC1F81FC1FC3FC1FFFFC0FFF6D
:10382000FC0FFFFC07FFFC03FEFC01FCFC0070FC2E
:103830000000FC0000F80001F80001F80003F80C9B
:1038400003F00F0FF00FFFE00FFFE00FFFC00FFFBF
:10385000800FFF0003FC00000000000000000000DB
:103860000000000000000000000000000000000058
:103870000000000000000000000000000000000048
:1038800000000000000000000000003E00007F007B
:10389000007F00007F00007F00007F00007F0000AD
:1038A0007F00007F00007F0000000000000000009B
:1038B0000000000000000000000000000000000008
:1038C000007F00007F00007F00007F00007F00007D
:1038D0007F00007F00007F00007F00003E000000AE
:1038E00000000000000000000000000000000000D8
:1038F00000000000000000000000000000000000C8
:1039000000000000000000000000000000000000B7
:1039100000000000000000000000003E00007F00EA
:10392000007F00007F00007F00007F00007F00001C
:103930007F00007F00007F0000000000000000000A
:103940000000000000000000000000000000000077
:10395000007F00007F00007F00007F00007F0000EC
:103960007F00007F00007F00007E00007E00007C62
:103970000000FC0000FC0000F80000F80000F0006F
:1039800000F0000000000000000000000000000047
:103990000000000000000000000000000000000027
:1039A0000000000000000600001E00007E0001FE76
:1039B0000007FE001FFE007FFC01FFF007FFC01F95
:1039C000FE003FF8003FE0003F80003F00003FC0A6
:1039D000003FF8001FFE0007FF8001FFE000FFF836
:1039E000003FFE000FFE0003FE0000FE00003E0050
:1039F000000E0000020000000000000000000000B7
:103A000000000000000000000000000000000000B6
:103A100000000000000000000000000000000000A6
:103A20000000000000000000000000000000000096
:103A30000000000000000000000000000000000086
:103A40003FFFFE3FFFFE3FFFFE3FFFFE3FFFFE3F0B
:103A5000FFFE000000000000000000000000000069
:103A6000000000003FFFFE3FFFFE3FFFFE3FFFFE66
:103A70003FFFFE3FFFFE00000000000000000000CE
:103A80000000000000000000000000000000000036
:103A90000000000000000000000000000000000026
:103AA0000000000000000000000000000000000016
:103AB0000000000000000000000000000000000006
:103AC000000000003000003C00003F00003FC0004C
:103AD0003FF0003FFC001FFF0007FFC001FFF000A8
:103AE0007FFC000FFE0003FE0000FE00007E0003CE
:103AF000FE000FFE003FFC00FFF003FFC00FFF00C1
:103B00003FFC003FF0003FC0003F00003E00003897
:103B10000000200000000000000000000000000085
:103B20000000000000000000000000000000000095
:103B30000000000000000000000000000000000085
:103B40001E0000FFC003FFE007FFF007FFF007FFC4
:103B5000F807FFF80781F80601F80400F80000F8FC
:103B60000001F80001F80003F00003F00007E00096
:103B70000FC0001FC0001F80003F00003F00007EFC
:103B800000007E00007C00007C00007C00007C00C7
:103B9000007C00007C00000000000000000000002D
:103BA0007C00007C00007C00007C00007C00007C2D
:103BB00000007C0000000000000000000000000089
:103BC00000000000000000000000000000000000F5
:103BD0000000003F0000FFC003FFE007FFF007FF09
:103BE000F80FE1F81F807C1F007C3E003C3E003C4B
:103BF0007C003C7C0F9E783FFE787FFEF87FFEF0D5
:103C0000FFFEF0F87EF0F03EF1F03EF1F01EF1F034
:103C10001EF1F01EF1F01EF1F01EF1F03EF0F03E4C
:103C2000F0F83EF0FCFEF87FFEF87FFE783FFE786D
:103C30001FDC7C07003C00003E00001F00001F80CE
:103C4000000FC0180FF8F807FFFC03FFFC01FFFC92
:103C5000007FF0000FC00000000000000000000026
:103C6000000000FE0000FF0001FF0001FF0001FF57
:103C70000001FF0001FF8003FF8003FF8003EF804E
:103C800003EF8003EFC007EFC007E7C007C7C00717
:103C9000C7C007C7E00FC7E00FC7E00FC3E00F833F
:103CA000E00F83F01FFFF01FFFF01FFFF01FFFF07A
:103CB0001FFFF83FFFF83FFFF83F01F83F00FC7E91
:103CC00000FC7E00FC7E00FC7E00FC7E007EFC0092
:103CD0007EFC007E000000000000000000000000EC
:103CE00000000000000000000000000000000000D4
:103CF00000003FFE003FFFC03FFFE03FFFF03FFFFF
:103D0000F03FFFF83F07F83F01F83F01FC3F00FCA0
:103D10003F00FC3F00FC3F00F83F01F83F03F83F45
:103D2000FFF03FFFE03FFFC03FFFC03FFFF03FFF1E
:103D3000F83F03F83F00FC3F00FC3F00FC3F007EE3
:103D40003F007E3F007E3F00FE3F00FE3F00FE3F03
:103D500003FC3FFFFC3FFFFC3FFFF83FFFF03FFF4E
:103D6000E03FFF80000000000000000000000000B5
:103D70000000000000000000000000000000000043
:103D80000780003FF000FFF801FFF803FFF803FF92
:103D9000F807FFF807FCF80FF0380FE0080FC00035
:103DA0001FC0001FC0001F80001F80001F80001F59
:103DB00080001F80001F80001F80001F80001F8068
:103DC000001F80001F80001F80001F80001F8000D8
:103DD0001FC0001FC0000FC0000FE0080FF0180741
:103DE000F87807FFF803FFF803FFF801FFF800FF7A
:103DF000F8007FF0000FC00000000000000000008D
:103E000000000000000000000000000000000000B2
:103E100000001FF8003FFF003FFFC03FFFE03FFFF3
:103E2000F03FFFF03FFFF83F07F83F03FC3F01FC86
:103E30003F00FC3F00FC3F00FE3F00FE3F007E3F96
:103E4000007E3F007E3F007E3F007E3F007E3F00C1
:103E50007E3F007E3F007E3F007E3F00FE3F00FE33
:103E60003F00FE3F00FC3F01FC3F01FC3F07F83FE5
:103E7000FFF83FFFF03FFFF03FFFE03FFFC03FFF95
:103E8000003FFC00000000000000000000000000F7
:103E90000000000000000000000000000000000022
:103EA00000001FFFF81FFFF81FFFF81FFFF81FFF9C
:103EB000F81FFFF81FFFF81F80001F80001F800001
:103EC0001F80001F80001F80001F80001F80001FB8
:103ED000FFF01FFFF01FFFF01FFFF01FFFF01FFF9D
:103EE000F01FFFF01F80001F80001F80001F800058
:103EF0001F80001F80001F80001F80001F80001F88
:103F0000FFF81FFFF81FFFF81FFFF81FFFF81FFF44
:103F1000F81FFFF800000000000000000000000093
:103F20000000000000000000000000000000000091
:103F300000000FFFFC1FFFFC1FFFFC1FFFFC1FFF0B
:103F4000FC1FFFFC1FFFFC1F80001F80001F800064
:103F50001F80001F80001F80001F80001F80001F27
:103F6000FFF81FFFF81FFFF81FFFF81FFFF81FFFE4
:103F7000F81FFFF01F80001F80001F80001F8000BF
:103F80001F80001F80001F80001F80001F80001FF7
:103F900080001F80001F80001F80001F80001F8086
:103FA000001F800000000000000000000000000072
:103FB0000000000000000000000000000000000001
:103FC0000F80007FF000FFF801FFFC03FFFC07FFFC
:103FD000FC07FFFC0FF87C0FE01C1FE00C1FC00467
:103FE0001F80001F80003F80003F80003F00003F97
:103FF00000003F00003F03FC3F07FE3F07FE3F0776
:10400000FE3F07FE3F07FE3F07FE3F807E3F807E6C
:104010001F807E1F807E1FC07E1FC07E0FE07E0F30
:10402000F87E07FFFE07FFFE03FFFE01FFFC00FF17
:10403000F8007FF0001F800000000000000000007A
:104040000000000000000000000000000000000070
:1040500000001F00F83F01F83F01F83F01F83F0161
:10406000F83F01F83F01F83F01F83F01F83F01F840
:104070003F01F83F01F83F01F83F01F83FFFF83FEB
:10408000FFF83FFFF83FFFF83FFFF83FFFF83FFF23
:10409000F83F81F83F01F83F01F83F01F83F01F890
:1040A0003F01F83F01F83F01F83F01F83F01F83FB9
:1040B00001F83F01F83F01F83F01F83F01F83F01E7
:1040C000F83F01F8000000000000000000000000C0
:1040D00000000000000000000000000000000000E0
:1040E00000001FFFF81FFFF81FFFF81FFFF81FFF5A
:1040F000F81FFFF81FFFF8007E00007E00007E0022
:10410000007E00007E00007E00007E00007E000039
:104110007E00007E00007E00007E00007E00007EAB
:1041200000007E00007E00007E00007E00007E0019
:10413000007E00007E00007E00007E00007E000FFA
:10414000FFF01FFFF81FFFF81FFFF81FFFF81FFF0A
:10415000F81FFFF800000000000000000000000051
:10416000000000000000000000000000000000004F
:10417000000001FFE003FFF003FFF003FFF003FF87
:10418000F003FFF001FFF00003F00003F00003F084
:104190000003F00003F00003F00003F00003F00060
:1041A00003F00003F00003F00003F00003F000034D
:1041B000F00003F00003F00003F00003F00003F050
:1041C0000003F00003F02007F03007F03807E03E6E
:1041D0001FE03FFFE03FFFE03FFFC03FFFC03FFF6A
:1041E000800FFF0001FC0000000000000000000044
:1041F00000000000000000000000000000000000BF
:1042000000003F007E3F00FE3F01FC3F01FC3F03FA
:10421000F83F03F03F07F03F0FE03F0FC03F1FC0E4
:104220003F1F803F3F803F7F003F7E003FFE003FBB
:10423000FC003FFE003FFE003FFF003FFF003FFF4E
:10424000803FFF803FDF803F9FC03F0FC03F0FE0B8
:104250003F07E03F07F03F07F03F03F03F03F83F21
:1042600001F83F01FC3F01FC3F00FC3F00FE3F0026
:104270007E3F007F00000000000000000000000002
:10428000000000000000000000000000000000002E
:1042900000000FC0000FC0000FC0000FC0000FC013
:1042A000000FC0000FC0000FC0000FC0000FC00003
:1042B0000FC0000FC0000FC0000FC0000FC0000FE4
:1042C000C0000FC0000FC0000FC0000FC0000FC023
:1042D000000FC0000FC0000FC0000FC0000FC000D3
:1042E0000FC0000FC0000FC0000FC0000FC0000FB4
:1042F000FFFC0FFFFC0FFFFC0FFFFC0FFFFC0FFF8D
:10430000FC0FFFFC000000000000000000000000A7
:10431000000000000000000000000000000000009D
:1043200000003F01FC7F81FC7F81FC7F83FC7F8359
:10433000FC7FC3FC7FC3FC7FC3FC7FC7FC7FC7FC43
:104340007FE7FC7FE77C7DE77C7CEF7C7CEF7C7EFD
:10435000FF7C7EFF7C7EFE7C7EFE7C7E7E7C7E7E85
:104360007C7E7E7C7E7C7C7E7C7C7E3C7C7E007C3D
:104370007E007C7E007C7E007C7E007C7E007C7EDD
:10438000007C7E007C7E007C7E007C7E007C7E004B
:104390007C7E007C000000000000000000000000A7
:1043A000000000000000000000000000000000000D
:1043B00000003F00F83F80FC3F80FC3F80FC3FC096
:1043C000FC3FC0FC3FC0FC3FE0FC3FE0FC3FE0FCAA
:1043D0003FE0FC3FF0FC3FF0FC3EF0FC3EF8FC3ED2
:1043E00078FC3E78FC3E7CFC3E7CFC3E3CFC3E3C4B
:1043F000FC3E3EFC3E1EFC3E1EFC3E1EFC3E0FFCF8
:104400003E0FFC3E0FFC3E0FFC3E07FC3E07FC3E11
:1044100007FC3E07FC3E03FC3E03FC3E03FC3E0162
:10442000FC3E01FC00000000000000000000000055
:10443000000000000000000000000000000000007C
:104440003C0000FF0003FFC007FFC007FFE00FFFB5
:10445000F00FFFF01FE7F81FC3F81F81F81F81FC62
:104460003F01FC3F00FC3F00FC3F00FC3F00FC3FE5
:1044700000FC3F00FC3F00FC3F00FC3F00FC3F0015
:10448000FC3F00FC3F00FC3F00FC3F00FC3F00FC09
:104490003F00FC3F00FC3F81FC1F81F81FC3F81F59
:1044A000E7F80FFFF00FFFF007FFE007FFE003FF63
:1044B000C001FF80007E000000000000000000003E
:1044C00000000000000000000000000000000000EC
:1044D00000001FFE001FFFC01FFFE01FFFF01FFFB7
:1044E000F81FFFF81FFFFC1F81FC1F81FC1F80FCD1
:1044F0001F80FC1F80FC1F80FC1F80FC1F80FC1F96
:1045000081FC1F81FC1FFFFC1FFFF81FFFF81FFF2E
:10451000F01FFFE01FFFC01FFE001F80001F800074
:104520001F80001F80001F80001F80001F80001F51
:1045300080001F80001F80001F80001F80001F80E0
:10454000001F8000000000000000000000000000CC
:10455000000000000000000000000000000000005B
:104560007E0001FF8003FFC007FFE007FFE00FFFB1
:10457000F00FFFF01FC3F81F83F81F81F83F81FC85
:104580003F00FC3F00FC3F00FC3F00FC3F00FC3FC5
:1045900000FC3F00FC3F00FC3F00FC3F00FC3F00F4
:1045A000FC3F00FC3F00FC3F00FC3F00FC3F00FCE8
:1045B0003F00FC3F81FC1F81F81F81F81FC3F80FEB
:1045C000FFF00FFFF007FFE007FFE003FFC001FF70
:1045D000C0007FE00007F00003F80001F80001F0E0
:1045E0000000E00000C0000000000000000000002B
:1045F00000001FFE003FFF803FFFE03FFFF03FFF56
:10460000F03FFFF83FFFF83F03F83F01F83F01F8A4
:104610003F01F83F01F83F01F83F01F83F01F83F43
:1046200003F83F8FF03FFFF03FFFE03FFFC03FFF49
:10463000003FFF803FFFC03F1FC03F0FE03F07E04C
:104640003F07E03F03F03F03F03F03F83F01F83F2F
:1046500001F83F01FC3F00FC3F00FE3F00FE3F0031
:104660007E3F007F0000000000000000000000000E
:10467000000000000000000000000000000000003A
:104680003C0001FF8003FFE007FFF00FFFF01FFF7A
:10469000F01FFFF01F80F03F80703F00103F0000D0
:1046A0003F00003F00003F80003FC0001FF0001FA0
:1046B000FC000FFF000FFF8007FFC003FFE000FFBB
:1046C000F0007FF0001FF80007F80003F80001FC7D
:1046D0000001FC0000FC0000FC3001FC3801F83E49
:1046E00003F83FFFF83FFFF83FFFF03FFFE01FFFF9
:1046F000C007FF8001FE0000000000000000000075
:1047000000000000000000000000000000000000A9
:1047100000003FFFFC3FFFFC3FFFFC3FFFFC3FFF73
:10472000FC3FFFFC3FFFFC007E00007E00007E009F
:10473000007E00007E00007E00007E00007E000003
:104740007E00007E00007E00007E00007E00007E75
:1047500000007E00007E00007E00007E00007E00E3
:10476000007E00007E00007E00007E00007E0000D3
:104770007E00007E00007E00007E00007E00007E45
:1047800000007E00000000000000000000000000AB
:104790000000000000000000000000000000000019
:1047A00000003F00FC3F00FC3F00FC3F00FC3F00DE
:1047B000FC3F00FC3F00FC3F00FC3F00FC3F00FCD6
:1047C0003F00FC3F00FC3F00FC3F00FC3F00FC3F83
:1047D00000FC3F00FC3F00FC3F00FC3F00FC3F00B2
:1047E000FC3F00FC3F00FC3F00FC3F00FC3F00FCA6
:1047F0003F00FC3F00FC3F00FC3F81FC1F81FC1F91
:10480000C3F81FFFF81FFFF80FFFF007FFF007FFC7
:10481000E001FFC0007E000000000000000000007A
:104820000000000000000000000000000000000088
:1048300000007E007E7E007E7E007E3F00FC3F000A
:10484000FC3F00FC3F00FC3F00FC1F00FC1F80F809
:104850001F81F81F81F81F81F81F81F80F81F00F69
:10486000C1F00FC3F00FC3F00FC3F007C3F007C3CD
:10487000E007E3E007E7E007E7E003E7E003E7C07E
:1048800003E7C003E7C003F7C003FFC001FF8001D7
:10489000FF8001FF8001FF8001FF8001FF8000FF9A
:1048A0000000FF0000000000000000000000000009
:1048B00000000000000000000000000000000000F8
:1048C0000000F8001FF8001FF8001FF8001FFC0090
:1048D0001FFC003FFC003F7C001F7C003E7C003E34
:1048E0007C3E3E7C7E3E7C7E3E7C7E3E7C7E3E7C74
:1048F0007F3E7C7F3E3E7F3E3EFF3E3EFF3E3EF79C
:104900003C3EE73C3EE73C3EE7BC3FE7FC3FE7FC84
:104910003FE7FC1FE7FC1FE3FC1FC3FC1FC3FC1F9A
:10492000C3F81FC3F81FC1F81FC1F81FC1F81F81CA
:10493000F80F81F8000000000000000000000000F7
:104940000000000000000000000000000000000067
:1049500000007E007E7F007E3F00FE3F00FC1F8146
:10496000FC1F81F80FC1F80FC3F00FE3F007E7E079
:1049700007E7E003FFE003FFC001FFC001FF800085
:10498000FF8000FF0000FF00007E00007F0000FFAE
:104990000000FF0001FF8001FF8001FFC003FFC096
:1049A00003F7E007E7E007E7F00FC3F00FC3F01FDE
:1049B000C1F81F81F81F80FC3F00FC3F00FE7E0015
:1049C0007E7E007F0000000000000000000000006C
:1049D00000000000000000000000000000000000D7
:1049E00000007E003F7E007F7E007E7F00FE3F0055
:1049F000FC3F80FC1F81FC1F81F81FC1F80FC3F82A
:104A00000FC3F007E7F007E7E007E7E003FFE00385
:104A1000FFC001FFC001FF8001FF8000FF8000FF99
:104A20000000FF00007E00007E00007E00007E008F
:104A3000007E00007E00007E00007E00007E000000
:104A40007E00007E00007E00007E00007E00007E72
:104A500000007E00000000000000000000000000D8
:104A60000000000000000000000000000000000046
:104A700000001FFFFC1FFFFE1FFFFE1FFFFE1FFFAA
:104A8000FE1FFFFE1FFFFE0001FC0003FC0003F8F9
:104A90000007F00007F0000FE0000FE0001FC0006B
:104AA0001FC0003F80003F80007F00007F0000FEAD
:104AB0000000FC0001FC0001F80003F80003F00016
:104AC00007F0000FE0000FE0001FC0001F80003F54
:104AD000FFFC3FFFFE3FFFFE3FFFFE3FFFFE3FFFAD
:104AE000FE3FFFFE0000000000000000000000008C
:104AF00000000000000000000000000000FFC000F7
:104B0000FFC000FFC000FFC000FFC000FC0000FCB1
:104B10000000FC0000FC0000FC0000FC0000FC00A9
:104B200000FC0000FC0000FC0000FC0000FC000099
:104B3000FC0000FC0000FC0000FC0000FC0000FC8D
:104B40000000FC0000FC0000FC0000FC0000FC0079
:104B500000FC0000FC0000FC0000FC0000FC000069
:104B6000FC0000FC0000FC0000FC0000FC0000FF5A
:104B7000C000FFC000FFC000FFC000000000000038
:104B80000000000000000000000000000000000025
:104B900000000000000000003E00001E00001F009A
:104BA000000F00000F80000F800007800007C0008A
:104BB00003C00003E00001E00001F00001F000008C
:104BC000F00000F800007800007C00003C00003E8F
:104BD00000003E00001E00001F00000F00000F80BC
:104BE0000007800007C00007C00003C00003E0000A
:104BF00001E00001F00000F00000F80000F8000003
:104C00007C00007C000000000000000000000000AC
:104C100000000000000000000000000001FF000391
:104C2000FF8003FF8003FF8001FF80001F80001FC3
:104C300080001F80001F80001F80001F80001F80D9
:104C4000001F80001F80001F80001F80001F800049
:104C50001F80001F80001F80001F80001F80001F1A
:104C600080001F80001F80001F80001F80001F80A9
:104C7000001F80001F80001F80001F80001F800019
:104C80001F80001F80001F80001F80001F8001FF09
:104C90008003FF8003FF8003FF800000000000000E
:104CA0000000000000000000000000000000000004
:104CB00000000000000000000000000000000000F4
:104CC00000000000000000000000007E00007F00E7
:104CD00000FF0001FF8001FF8003FFC003FFE0072A
:104CE000E7E00FC3F00FC3F01F81F81F00FC3E0088
:104CF0007C7C003E0000000000000000000000007E
:104D000000000000000000000000000000000000A3
:104D10000000000000000000000000000000000093
:104D20000000000000000000000000000000000083
:104D30000000000000000000000000000000000073
:104D40000000000000000000000000000000000063
:104D50000000000000000000000000000000000053
:104D60000000000000000000000000000000000043
:104D70000000000000000000000000000000000033
:104D80000000000000000000000000000000000023
:104D90000000000000000000000000000000000013
:104DA0000000000000000000FFFFFFFFFFFFFFFF0B
:104DB000FFFFFFFFFFFFFF000000000000000000FA
:104DC00000000000000000000000000000000000E3
:104DD0000F00001F00001F00003F00003E00003ECB
:104DE00000007E00007E0000FE0000FC0000FC00D1
:104DF00000FC0000FC0000FC0000FC0000FC0000C7
:104E000000000000000000000000000000000000A2
:104E10000000000000000000000000000000000092
:104E20000000000000000000000000000000000082
:104E30000000000000000000000000000000000072
:104E40000000000000000000000000000000000062
:104E50000000000000000000000000000000000052
:104E60000000000000000000000000000000000042
:104E70000000000000000000000000000001FF0032
:104E800007FFC00FFFE00FFFF00FFFF00FFFF80E5E
:104E900001F81801F80000F80000F800FFF807FF1B
:104EA000F80FFFF81FFFF81FFFF83FFFF83FC0F8AB
:104EB0003F00F87F01F87F01F87F01F87F01F83F9C
:104EC00003F83F87F83FCFF83FFFF81FFFF80FFCCC
:104ED000F807FCF801F000000000000000000000EE
:104EE0000000000000000000000000000000001FA3
:104EF00000001F00001F00001F00001F00001F0017
:104F0000001F00001F00001F00001F00001F0F8077
:104F10001F3FC01F3FE01F7FF01FFFF01FFFF81F64
:104F2000E7F81FC1F81FC1FC1F80FC1F80FC1F8019
:104F3000FC1F80FC1F00FC1F00FC1F00FC1F00FC6E
:104F40001F80FC1F80FC1F80FC1F80FC1FC1FC1FFA
:104F5000C1F81FE7F81FFFF81FFFF01F7FF01F3F8A
:104F6000E01F3FC0000F80000000000000000000B4
:104F70000000000000000000000000000000000031
:104F80000000000000000000000000000000000021
:104F900000000000000000000000000000003F8052
:104FA00000FFE001FFF003FFF007FFF007FFF00F45
:104FB000F0700FE0380FC0001FC0001F80001F807E
:104FC000001F80001F80001F80001F80001F8000C6
:104FD0001F80001F80001F80001FC0000FC0100F27
:104FE000E0300FF8F007FFF007FFF003FFF001FFDC
:104FF000F000FFE0003F8000000000000000000023
:1050000000000000000000000000000000000000A0
:1050100001F80001F80001F80001F80001F80001B2
:10502000F80001F80001F80001F80001F801F1F8BA
:1050300007F9F80FFDF80FFFF81FFFF81FFFF83F03
:10504000CFF83F87F83F03F83F03F83F01F83F01EF
:10505000F87E01F87E01F87E01F87E01F87E01F805
:105060007E01F83F01F83F01F83F03F83F03F83FA6
:1050700087F81FCFF81FFFF81FFFF80FFFF807FD95
:10508000F807F9F801F0000000000000000000003F
:105090000000000000000000000000000000000010
:1050A0000000000000000000000000000000000000
:1050B00000000000000000000000000000007F0071
:1050C00001FFC003FFE007FFF00FFFF00FFFF81F25
:1050D000C3F81F81FC3F00FC3F00FC3F00FC3FFF8A
:1050E000FC3FFFFE3FFFFE3FFFFE3FFFFE3FFFFE98
:1050F0003F00003F00003F00003F00003F800C1FCA
:10510000801C1FE0FC0FFFFC0FFFFC07FFFC03FFF0
:10511000FC01FFF0007F80000000000000000000A4
:10512000000000000000000000000000000000007F
:105130001FF8003FF8003FF8007FF8007FF8007F7D
:105140000000FC0000FC0000FC0000FC0000FE0071
:105150001FFFF81FFFF81FFFF81FFFF81FFFF80FD2
:10516000FFF000FC0000FC0000FC0000FC0000FC64
:105170000000FC0000FC0000FC0000FC0000FC0043
:1051800000FC0000FC0000FC0000FC0000FC000033
:10519000FC0000FC0000FC0000FC0000FC0000FC27
:1051A0000000FC0000000000000000000000000003
:1051B00000000000000000000000000000000000EF
:1051C00000000000000000000000000000000000DF
:1051D0000000000000000000000000000001F800D6
:1051E00003FCF807FEF80FFFF81FFFF81FEFF83F6A
:1051F00083F83F83F83F01F83F01F83F01F83F0192
:10520000F83F01F83E00F83F01F83F01F83F01F890
:105210003F01F83F83F81FC7F81FFFF80FFFF80F93
:10522000FFF807FCF801F8F80001F80001F80001A8
:10523000F80C03F80FFFF80FFFF00FFFF00FFFE07F
:105240000FFF8003FE000000000000000000001FB0
:1052500080001F80001F80001F80001F80001F80B3
:10526000001F80001F80001F80001F80001F8F8094
:105270001F9FC01FBFE01FFFF01FFFF01FFFF01FA9
:10528000E3F81FC1F81FC1F81F81F81F81F81F81C3
:10529000F81F81F81F81F81F81F81F81F81F81F81E
:1052A0001F81F81F81F81F81F81F81F81F81F81FE7
:1052B00081F81F81F81F81F81F81F81F81F81F8175
:1052C000F81F81F80000000000000000000000004E
:1052D000000000000000003F00003F00003F000011
:1052E0003F00003F00003F00003F00003F00003E45
:1052F00000000000000000000000000000000000AE
:105300000FFF000FFF000FFF000FFF000FFF000750
:10531000FF00003F00003F00003F00003F00003F53
:1053200000003F00003F00003F00003F00003F0042
:10533000003F00003F00003F00003F00003F000032
:105340003F001FFFFC1FFFFE1FFFFE1FFFFE1FFF92
:10535000FE1FFFFE00000000000000000000000033
:10536000000000000000000000001F00001F80007F
:105370001F80001F80001F80001F80001F80001FF3
:10538000000000000000000000000000000000001D
:1053900007FF8007FF8007FF8007FF8007FF80006F
:1053A0001F80001F80001F80001F80001F80001FC3
:1053B00080001F80001F80001F80001F80001F8052
:1053C000001F80001F80001F80001F80001F8000C2
:1053D0001F80001F80001F80001F80003F80003F53
:1053E00000003F0000FF001FFF001FFE001FFE0027
:1053F0001FFC001FF0000000000000000000001F64
:1054000080001F80001F80001F80001F80001F8001
:10541000001F80001F80001F80001F80001F800071
:105420001F81FC1F83FC1F83F81F87F01F8FE01F65
:105430008FC01F9FC01FBF801FFF001FFE001FFEE9
:10544000001FFE001FFF001FFF001FFF801FDF80E7
:105450001FCFC01F8FC01F8FE01F87E01F87F01F67
:1054600083F01F83F81F81F81F81FC1F80FC1F80C1
:10547000FE1F807E00000000000000000000000011
:105480000000000000000000000000000000007F9D
:10549000F8007FF8007FF8007FF8007FF80001F83F
:1054A0000001F80001F80001F80001F80001F8001F
:1054B00001F80001F80001F80001F80001F800010E
:1054C000F80001F80001F80001F80001F80001F807
:1054D0000001F80001F80001F80001F80001F800EF
:1054E00001F80001F80001F80001F80001FC0000DB
:1054F000FC0000FFF800FFF8007FF8007FF8003F95
:10550000F8001FF80000000000000000000000008C
:10551000000000000000000000000000000000008B
:10552000000000000000000000000000000000007B
:105530000000000000000000000000000000F1F08A
:105540007DFBF87FFBF87FFFFC7FFFFC7FFFFC7E8D
:105550007E7C7E7E7C7C7C3C7C3C3E7C7C3E7C7C81
:105560003E7C7C3E7C7C3E7C7C3E7C7C3E7C7C3EEF
:105570007C7C3E7C7C3E7C7C3E7C7C3E7C7C3E7CA1
:105580007C3E7C7C3E7C7C3E7C7C3E7C7C3E7C7C91
:105590003E7C3C3C000000000000000000000000D9
:1055A00000000000000000000000000000000000FB
:1055B00000000000000000000000000000000000EB
:1055C00000000000000000000000000000000F804C
:1055D0001F9FC01FBFE01FFFF01FFFF01FFFF01F46
:1055E000E3F81FC3F81FC1F81F81F81F81F81F815E
:1055F000F81F81F81F81F81F81F81F81F81F81F8BB
:105600001F81F81F81F81F81F81F81F81F81F81F83
:1056100081F81F81F81F81F81F81F81F81F81F8111
:10562000F81F81F8000000000000000000000000EA
:10563000000000000000000000000000000000006A
:10564000000000000000000000000000000000005A
:105650000000000000000000000000000000FE004C
:1056600001FF8003FFC007FFE00FFFF00FFFF01FF7
:10567000C7F81F83F83F81F83F00FC3F00FC3F0064
:10568000FC3F00FC3E00FC3F00FC3F00FC3F00FCF8
:105690003F00FC3F00FC3F00FC3F01FC3F81F81F46
:1056A00083F81FE7F80FFFF00FFFF007FFE003FF9D
:1056B000C001FF80007E000000000000000000002C
:1056C00000000000000000000000000000000000DA
:1056D00000000000000000000000000000000000CA
:1056E00000000000000000000000000000000F802B
:1056F0001FBFE01F3FF01FFFF01FFFF81FF7F81F4D
:10570000C1FC1FC1FC1F80FC1F80FC1F80FC1F8090
:10571000FC1F80FC1F80FC1F80FC1F80FC1F80FC86
:105720001F80FC1FC1FC1FC1FC1FFFF81FFFF81FDB
:10573000FFF01F3FF01FBFE01F9F801F80001F80F2
:10574000001F80001F80001F80001F80001F80003E
:105750001F80001F8000000000000000000000000B
:105760000000000000000000000000000000000039
:105770000000000000000000000000000003F00036
:1057800007F9F80FFDF81FFFF81FFFF81FCFF83FCC
:1057900087F83F03F83F01F83F01F87E01F87E01EA
:1057A000F87E01F87E01F87E01F87E01F83F01F8ED
:1057B0003F01F83F03F83F87F83FFFF81FFFF81F4E
:1057C000FFF80FFDF807F9F801F1F80001F8000102
:1057D000F80001F80001F80001F80001F80001F8F4
:1057E0000001F80001F800000000000000000000C7
:1057F00000000000000000000000000000000000A9
:10580000000000000000000000000000000001F89F
:1058100007E7FC07E7FC07EFFC07FFFC07FFFC07B7
:10582000FFFC07FC0607F80007F00007F00007E0A0
:105830000007E00007E00007E00007E00007E000E5
:1058400007E00007E00007E00007E00007E00007CE
:10585000E00007E00007E00007E00007E00007E0E5
:105860000007E00000000000000000000000000051
:105870000000000000000000000000000000000028
:105880000000000000000000000000000000000018
:105890000000000000000000000000000000FF8089
:1058A00003FFE007FFE00FFFE00FFFE01FFFE01F37
:1058B00080601F80201F80001F80001FE0001FF8F5
:1058C000000FFF000FFFC007FFE003FFF000FFF035
:1058D000003FF00007F80001F80001F80001F81897
:1058E00001F81E03F81FFFF01FFFF01FFFF01FFF5E
:1058F000E00FFFC001FE00000000000000000000FB
:105900000000000000000000000000000000000097
:10591000000000000000000001F80001F80001F89C
:105920000001F80001F80001F80001F80001FC0096
:105930003FFFF83FFFF83FFFF83FFFF83FFFF81F3A
:10594000FFF001F80001F80001F80001F80001F88B
:105950000001F80001F80001F80001F80001F8006A
:1059600001F80001F80001F80001F80001F800005A
:10597000FC0000FFF000FFF800FFF8007FF8003F98
:10598000F8001FF800000000000000000000000008
:105990000000000000000000000000000000000007
:1059A00000000000000000000000000000000000F7
:1059B00000000000000000000000000000000000E7
:1059C0001F81F81F81F81F81F81F81F81F81F81FC0
:1059D00081F81F81F81F81F81F81F81F81F81F814E
:1059E000F81F81F81F81F81F81F81F81F81F81F8C7
:1059F0001F81F81F81F81F81F81F81F81F81F81F90
:105A0000C3F81FE7F80FFFF80FFFF80FFFF807FDC7
:105A1000F803F9F801F000000000000000000000A9
:105A20000000000000000000000000000000000076
:105A30000000000000000000000000000000000066
:105A40000000000000000000000000000000000056
:105A50003F00FE3F00FC3F00FC3F00FC1F00FC1F1E
:105A600081F81F81F81F81F80F81F00FC1F00FC37B
:105A7000F00FC3F007C3F007C3E007E7E007E7E074
:105A800003E7E003E7C003E7C003F7C001FFC0017D
:105A9000FF8001FF8001FF8001FF8000FF0000FF09
:105AA0000000FF00000000000000000000000000F7
:105AB00000000000000000000000000000000000E6
:105AC00000000000000000000000000000000000D6
:105AD00000000000000000000000000000000000C6
